:020000040000fa
:10000000f07f0020d5430000ef2e0000d73f000016
:1000100000000000000000000000000000000000e0
:100020000000000000000000000000005b4a00002b
:1000300000000000000000005b4a00005b4a000076
:100040005b4a00005b4a0000394b00008d43000012
:100050005b4a00005b4a00005b4a00005b4a00000c
:100060005b4a00005b4a00005b4a00005b4a0000fc
:100070005b4a00005b4a00005b4a00005b4a0000ec
:100080005b4a0000000000005b4a00005b4a000081
:100090005b4a00005b4a00005b4a00005b4a0000cc
:1000a000000000005b4a00005b4a00005b4a000061
:020000040000fa
:1000b000f8b5c046f8bc08bc9e4670476d430000ca
:1000c000f8b5c046f8bc08bc9e46704745430000e2
:020000040000fa
:0800d000e02100000100000026
:020000040000fa
:1000d800f0b5574645464e46de46e0b50f037f0a63
:1000e800450f3d43ac465d004e00cc0f690d8a4676
:1000f8001f03ca49550f83b0c0007f0ad200760d8e
:100108008046db0f2f4301928a4500d1c0e0554657
:10011800751ba9460125ab465d466b409b469c4234
:1001280000d190e04d46002d00dcbbe05346002b8b
:1001380000d1d4e08e4200d19fe280231b041f43ec
:100148004b46382b00dd64e11f2b00dd16e24946e3
:1001580020233d005b1a11009a409d40531e9a418e
:100168004b46a8464d46df406346e9404546db1b03
:100178009c460d431543451ba842804163464142b6
:10018800591a0b0200d41ce149024b0a984643460f
:10019800002b00d130e1404604f040fb0300083b4f
:1001a800202229004746d21a9f40d1409d400f4344
:1001b8009e4200dd1ce19e1b731c1f2b00ddb2e17b
:1001c80020222800d21a390095409140d8406a1e52
:1001d800954101430d4339000026d9406b0709d0ea
:1001e8000f232b40042b05d02b1dab42ad416d4294
:1001f80049191d000b0200d4e6e0721c874b560516
:10020800760d9a4200d1eee0854fed080f40780751
:10021800284382467a02120b00211203130b0a0d9f
:1002280012051a437f4b3605134033435b00e4073e
:100238005b0823435046190003b03cbc90469946de
:10024800a246ab46f0bd4d46002d5bdd5346002b64
:1002580000d19ae08e4200d109e180231b041f439c
:100268004b46382b00dd6ee11f2b00dca5e1390081
:10027800203bd9404b46202b05d040234d465b1be5
:100288009f403a430192019d6f1ebd410d435ee1bf
:1002980065493d0089461543b144002d2dd09b4644
:1002a8009c422fd0494600294ad1604d711c2942f1
:1002b80000d0bde03d00614615430143aa46002e2b
:1002c80000d0f8e1002900d1bee1002d00d0fde109
:1002d8006346c0085a0702439246d9087de03b00ae
:1002e800134300d1bbe04b46013b002b00d1bbe1df
:1002f800894500d1bbe0994622e701256b409b4622
:100308009c42cfd14946002900d0b8e0711c8a46ea
:10031800554646490d4245d161460143002e00d05d
:1003280070e1002900d10de23b00134300d00fe239
:100338006346c0085b07184363468246d9084ce009
:100348005146891b89465c46002e00d0c4e06346ae
:10035800034300d150e10b00013b002b00d1e8e141
:100368002e4d9946a94200d0bfe0d2087b071a4318
:100378009246f90853460b4300d13be28022120310
:100388000a431203120b254e46e73b00134300d1e4
:100398007ae14b46013b002b00d121e1894566d02b
:1003a80099465de71d4b9a4500d1dee182188242ed
:1003b80089415646674449427918cd075208154382
:1003c80049086b0700d00be74b07ed081d43aa4609
:1003d800b146c908114b9945ccd04b460a035e0576
:1003e800120b760d18e71600002300229a4613e731
:1003f8000b49f61a3940f1e6280004f00ffa030019
:1004080018331f2b00dccbe6083885402f00002569
:10041800cee63a4315006a1e9541ace6ff07000098
:10042800ffff7fffffff0f8001f8fffffe070000bf
:100438006146851acb1ba842894149428846190062
:100448004346c91a0b0088461b0200d529e10b0058
:100458002b439a4600d09ae600210024bde7634664
:10046800c0085b07184363468246d908b2e763466b
:10047800c0085b07184363468246d9087ae75346a3
:100488009b1b9946002e00d189e0d84b9a4500d194
:10049800e4e0802361461b0419438c464b46382b05
:1004a80000dd25e11f2b00dd6ae1494620234e4689
:1004b8005b1a6546010098409d40f140431e9841f3
:1004c8000d4305436046f0403f18ad1895428941f9
:1004d8004942c91956463fe0c44b9a4500d1bde090
:1004e800802361461b0419438c464b46382b00dd9c
:1004f800d1e01f2b00dd01e1494620234e465b1a5f
:100508006546010098409d40f140431e98410d43c7
:1005180005436046f0403f1a551baa4289414942ab
:10052800791a56462de63a001f3ef2401600202b57
:1005380003d04022d31a9f403d436b1e9d410021aa
:10054800354300263de73a4315006a1e95412d18ac
:1005580085428041414261440b0200d431e7a34bfc
:1005680001369e4200d13fe70122a14f6b08394076
:1005780015401d43cb071d4349082fe63900203b92
:10058800d9404b46202b05d040234d465b1b9f404e
:100598003a430192019d6f1ebd410d43ebe5634651
:1005a800034329d04b46013b002b00d116e18f4d68
:1005b800a94500d1d9e6994670e7494620233d0070
:1005c8005b1a9d4011009a40a8464d46531e9a4119
:1005d8004b46e9404546df400d431543bc44b6e76a
:1005e80085188542894167444942791801260b02da
:1005f80000d4e6e60226b7e7d2087b071a439246fc
:10060800f908e7e6002929d063463e005d07c008df
:10061800d90816432843002e00d188e080252d03f1
:10062800294207d0fe082e4204d15c463100d20888
:1006380078071043ca00410f1143c0004a07c00899
:1006480010438246c90895e6002d00d104e77807d3
:10065800d20810438246f9085c46bee67807d208fd
:1006680010438246f90885e6851a6346a842804108
:10067800df1b4042391a012683e56346c0085a0742
:1006880002439246d90875e66346c0085a070243f2
:100698009246d9089ee6634603431d00681e8541bd
:1006a8003ae7151a6346aa429241ff1a5242bb1a08
:1006b80098465c466be5002932d1002d72d0790747
:1006c800d2080a439246f9085c4653e66346851aff
:1006d800d91ba8429b415b42c91a0b024ad5151a7d
:1006e8006346aa429241ff1a5242b91a5c4675e51e
:1006f800634603431d00681e8541e6e66646203bc7
:10070800de404b46202b06d0494640235b1a614603
:100718009940084380464546691e8d413543fbe6ae
:100728006346c0085e07d908002d3fd13043824692
:1007380020e6151a6346aa429241ff1a5242b91a94
:1007480001261ee5d2087b071a439246f90844e6bb
:100758008518854289416744494279180b0200d4bb
:100768002fe6234b012619402be60023564600228c
:100778009a4651e52b000b439a4600d16ce620e6d9
:100788006646203bde404b46202b06d04946402398
:100798005b1a61469940084380464546691e8d416b
:1007a800354392e6802100240903e7e506438020cb
:1007b8000003014208d0fd08054205d1d2087f0791
:1007c8003a4316005c462900ca00710f1143f6002f
:1007d8004a07f60832439246c908cbe58518954280
:1007e800924167445142791800e7c046ff0700006c
:1007f800ffff7fff0023024e9a461a000ce5c04611
:10080800ff070000f0b557464e464546de46e0b5c0
:100818000c030600480087b092469846240b400d0a
:10082800cf0f002800d178e07b4b984200d190e0b0
:10083800730fe4001c438023784a1b041c4394462e
:10084800030063440093002399469b46f500434602
:1008580042461e03d20f5b005046360b5b0d904696
:1008680000d180e06c4a93421dd06c49420f8c46ff
:1008780000996344f6008c46164380229c44120477
:1008880063461643c2000020009300994346013195
:100898008c4649467b4001930f2900d9c6e0604b3e
:1008a800890059588f465c4952468c46009b324312
:1008b80063440093002a00d08de04946022319437f
:1008c800894600260220e0e74346019334001500dc
:1008d80083465b46022b64d0032b00d1f1e1012b48
:1008e80000d05ee100220026002500213603340beb
:1008f8000e0d360526434b4c120534401443019b1c
:100908006400db0764081c432800210007b03cbcd6
:1009180090469946a246ab46f0bd2500354352d0d5
:10092800002c00d176e1200003f078ff02000b3a9a
:100938001d2301009b1a3200350008398c40da402b
:100948008d401443384b1b1a0093002399469b464d
:100958007de7350025432fd108239946063b00241f
:1009680000909b4673e7524632431ed0002e00d1ba
:1009780042e1300003f052ff02000b3a1d23010050
:100988009b1a52460839da408e40164352468a402e
:10099800009b2549181a03008c46634400930020e5
:1009a80073e71d4a002600259fe74946012319439e
:1009b80089460026012068e70c239946093b350043
:1009c80000909b4643e70423994600230093013394
:1009d80000249b463be74a4603231a4391460320db
:1009e800524652e7019774e70023802601933603a5
:1009f8000025094a79e780231b031c4200d1f3e054
:100a08001e4200d0f0e01e43434636031500360b65
:100a18000193014a69e7c046ff07000001fcffff98
:100a2800f4460000ffff0f800dfcffff2f0c2d0484
:100a38002d0c2b00110c1204120c53439846130072
:100a480028007b43994648434844834640460b0068
:100a5800000c824658467b4350440293814506d990
:100a68009a4680235b029946ca4453460293030c74
:100a78009b4643461b0400041b0c98460300434452
:100a88000493330c99462b003604360c734398466e
:100a980033007b439a464b465d435f434346554488
:100aa800180c4019824503d980235b029a465744a3
:100ab800050ceb19059343461d042d0c0004401941
:100ac800250c2404240c270057436a4390462a0027
:100ad8003b0c9a464a436143414451448344884508
:100ae80003d980235b02984642443f040b0c3f0c19
:100af8000904c919270098464b4677435c436e435f
:100b08005d433b0c9946a4194c4442440395a642c4
:100b180004d980235b02984645440395029b3f0411
:100b28005b441e008342804123049846059b3f0c8a
:100b38004744984676188e428941474440423d18ba
:100b4800a846494293468a46c344da449f42bf4175
:100b580080458041039b934592418a458941984647
:100b6800534640427f420743240c524249420a43bb
:100b78003c19a418da0d049b75021d43681e8541b3
:100b8800534644446402f60d144335435a02154350
:100b9800e30173d501216a080d401543e2071543a7
:100ba80064084b4a6244002a43dd6b0709d00f21d1
:100bb8002940042905d0291da942ad416d42641977
:100bc8000d00e30104d5434a14408022d200624458
:100bd80041498a4200dde4e66107ed0864025205f6
:100be8000d43260b520d80e6802636032643360336
:100bf800360b0197394a78e603f010fe03001a0015
:100c0800153220301c2a00dcb8e65646083b002284
:100c18009e40bde6300003f001fe03001a001532c5
:100c280020301c2a00dc83e63400083b00259c4069
:100c380088e60121891a382900dd53e61f2920dcbe
:100c48002748220060442e0085408240ce40681e1e
:100c5800854132432a43cc40530709d00f21114024
:100c6800042905d0111d914292415242a4180a004c
:100c780023021fd501220026002536e6009b9c464c
:100c88008fe71f204042821a2000d040202903d03d
:100c9800144a6244944025436a1e95412a00072558
:100ca800024315400026002d07d00f2100241140d3
:100cb8000429d7d165076402260bd2081543002200
:100cc80013e68026360326433603360b034a0ce622
:100cd800ff030000fffffffefe070000ff07000004
:080ce8001e0400003e040000a0
:020000040000fa
:100cf000f8b50600d24c3423e15c0022002002f05b
:100d00008bf8206803f0f2fb2223e5560233e35c04
:100d1000002b24d12c1c0f2d00dd0f2463b20333d4
:100d200001dafd231c1c67b24d2004f00df8f821f8
:100d30000140042001434d2003f040ff002d06db5d
:100d400070213943c9b2092003f038ff3de0033474
:100d5000e1b220242143092003f030ff35e0012dca
:100d600010dd132d0fdd0b2003f0eeff04004d20ee
:100d700003f0eafff821014007200143df231c4074
:100d80000f2514e002250b2003f0deff04004d20a8
:100d900003f0dafff8210140042001432b1c112d40
:100da00000dd1123023b5db220231c43e4b24d2041
:100db00003f004ff802149422943c9b2092003f00e
:100dc000fdfe21000b2003f0f9fe9d4a3423d35c85
:100dd000012b00d172e09a4c63681802994901f026
:100de000bffd0500010ac9b2042003f0e7fee9b225
:100df000052003f0e3fea168934801f0b1fd050072
:100e0000010ac9b2022003f0d9fee9b2032003f0bf
:100e1000d5fe00215d2003f0d1fea18a090a25201c
:100e200003f0ccfe217d262003f0c8fe9e210d207c
:100e300003f0c4fe0a2003f087ff3723e15c490179
:100e4000293398430143c9b20a2003f0b7fe232394
:100e5000e15c4b42594149420f239943d031302044
:100e600003f0acfe4021312003f0a8fe744a212398
:100e7000d35c002b00d140e10024150021262b1962
:100e8000597e20002830c0b203f098fe0134e4b24d
:100e9000a95da142f3d8002900d12ee10139102328
:100ea0001943c9b2272003f089feff213e2003f039
:100eb00085feff213f2003f081fef8bd1400117e66
:100ec000392003f07bfe3623e15c0901033be35c40
:100ed0005b0019432623e25c253b13401943c9b24a
:100ee0001d2003f06bfe2323e35c9b0004211940cb
:100ef0003523e35c1b011943b3059b0f1943c9b2aa
:100f00001e2003f05bfee28a0021002a0dd04c492e
:100f10003623cb5c082b6cd0092b6dd00021072b1e
:100f200062d0474a3523d35cd940c9b2242003f0ac
:100f300045fef1b21f2003f041fe262003f004ff1e
:100f40003f4a3523d35c0c2b5cd03d4b5b6b3f4a57
:100f500013403f4a93425ad0f721014004200143f5
:100f6000262003f02bfe312003f0eefef821014095
:100f700003200143312003f021fe0a21372003f032
:100f80001dfe2f4a3123d35c122b44d0332003f0b3
:100f9000dbfe2b4c2523e35c9b01402119404023c1
:100fa00098430143c9b2332003f008fea18a090a1d
:100fb000202003f003fe217d212003f0fffd00210e
:100fc0000d2003f0fbfd00210e2003f0f7fd0021b2
:100fd0000f2003f0f3fd3123e35c122b4bd0ff21f4
:100fe000122003f0ebfd68e75101891a8900891886
:100ff00097e7fa21514394e75101891a890089182a
:1010000089008ee72a33d35c073b012b9dd808214a
:101010000143c9b2a2e72433d35c073b012b19d9a2
:10102000074a3623d35c092bb0d1312003f08cfe64
:1010300080235b420343d9b2312003f0bffda5e713
:1010400060030020093d00000048e80100ffff00a8
:10105000000b0700312003f077fe7f210140312093
:1010600003f0acfd40212f2003f0a8fd002130202b
:1010700003f0a4fdd4e7234a2433d35c092b15d015
:101080000321362003f09afd1e4a3623d35c092b38
:1010900003d11c33d35c012b26d065213a2003f009
:1010a0008dfd1d213b2003f089fd98e71368164a4a
:1010b0009918164a914208d80221362003f07efd85
:1010c00064213a2003f07afddee7114a9446634436
:1010d000104a9342d4d80221362003f06ffd7f21bd
:1010e0003a2003f06bfdcfe765213a2003f066fd5f
:1010f00019213b2003f062fd71e70021272003f056
:101100005dfdd2e66003002080ec9ecc80e36a099e
:0811100080e58fe7c0c2da069a
:020000040000fa
:10111800f8b543025b0ada00de4693464a02520af1
:10112800454690464e4657464446e0b54a00470075
:101138003f0ee400120ea1469c463e00c50fc90fa3
:10114800bc1aff2a00d177e0012082465046414070
:101158008d4200d180e0002c51dd002a00d073e0e0
:101168004b46002b00d1dde0013c002c0fd0ff2fb7
:1011780000d1a5e001231b2c09dc20224946121bc3
:1011880091404b460a00e340511e8a4113435a4698
:10119800d31a5a0100d4c0e09b019c09200003f037
:1011a8003dfb230005388340864200ddc4e0861bf2
:1011b8001a0020200136f240861bb3405c1ea34172
:1011c800002613435a0704d00f221a40042a00d0dd
:1011d80004335a0100d4a3e00136f7b2ff2e00d140
:1011e800a7e09b015b0a5802ff05400aed07384358
:1011f80028433cbc90469946a246ab46f8bd002c15
:101208004fd1fe247a1c144200d099e05a46002f90
:1012180000d000e1002a00d1f1e04a46002ae2d0dd
:101228004b465a46d31a5a0100d402e14b465a4655
:101238000d009b1a0026c5e74846002800d183e721
:101248008d4251d0002cdaddff2f39d080234a4659
:10125800db041a4391468de7002c45dd002a3ad07d
:10126800ff2f2dd080234a46db041a4391460123e1
:101278001b2c09dc20224946121b91404b460a00d0
:10128800e340511e8a4113435b445a0145d5013658
:10129800ff2e4ed001226e491a405b080b401343c3
:1012a80090e7d41b0d00002f6fd15b46002b00d1b7
:1012b8008fe0013c002c00d1c2e0ff2a6cd1c4466b
:1012c8006346002b35d080236246db0313435b0261
:1012d8005b0aff2787e74b46002b23d0013c002cf5
:1012e80074d0ff2fc3d1ebe7002c35d1fe227e1c32
:1012f800324200d089e05a46002f6dd1002a00d131
:10130800a3e04a46002a00d16de75b464b4400261d
:101318005a0102d54f4a013613405a0700d053e705
:10132800db089c46ff2ecbd063465b025b0af7b214
:1013380059e7ff27002356e7464a361a134041e784
:101348004b465a46d41a63016fd4002c00d025e7c7
:1013580000250027002346e7d11b002f2cd0ff2aa9
:10136800add080235846db041843834601231b294c
:1013780008dc5b4620245846cb40611a8840411e51
:10138800884103434b4416007fe7ff2a97d0802308
:101398005946db0419438b4601231b2c08dc20210a
:1013a8005b465846e3400c1ba040411e884103435e
:1013b80049461600cb1aece65b46002b09d00139ea
:1013c8000029dfd0ff2ad1d1c44679e75b464b44d8
:1013d8005be7c4461600a5e7002a00d16fe74a4636
:1013e800002a00d16ce78022d203134200d167e7bc
:1013f8004346134200d063e70d00c44660e74b46fe
:10140800002b1ad00d004346ede6ff2e91d05b4627
:101418004b445b0881e7002ae1d14b46002bebd116
:1014280080230025db03ff27dde64b460d009c1ad1
:10143800b4e60026002b00d06fe700250023d2e693
:101448004b46594616005b1aa3e64346cbe6c04610
:08145800ffffff7dfffffffb1a
:020000040000fa
:1014600030b585b0a44b1b889b0642d4a24b1b8889
:101470005b0667d4a04b1b881b0663d49e4b1b885e
:101480009b0700d589e09c4b1b881b0700d506e114
:10149000994b1b88db0575d5974a138897490b40f4
:1014a0001380974c2c25625dd2b2a16a002003f014
:1014b00041f93423e15c0022002001f0adfc03f08f
:1014c000a1fd01aba26a0292625d1a72002258214c
:1014d00062541a708b4b01321a708b4b1b78db06ef
:1014e00050d5874b1b69002b4cd001a91020984781
:1014f00048e0814a138820218b431380804c342597
:10150000615d0122012001f087fc615d0022002065
:1015100001f082fc03f076fd7a4b01221a70002361
:1015200001aa13702c22a3542c32a354764b1b789f
:101530001b0727d5724b1b69002b23d001a908205c
:1015400098471fe06c4b1a8840218a431a801a88fa
:1015500040318a431a806a4c3423e15c0022002027
:1015600001f05afc03f04efd664b01221a70002375
:1015700001aa13702c22a3542c32a354624b1b7863
:101580001b0702d4002005b030bd5d4b1b69002b4a
:10159000f8d001a908209847f4e7574a1388022198
:1015a0008b431380132003f0cffb554c2c25605543
:1015b00000210d2003f002fb625dd2b2a16a00207f
:1015c00003f0b8f8192003f0bffb40b283100028e5
:1015d00036db4b4d32242b551a2003f0b5fb03b2fa
:1015e0002a57002a31db464a1268484954184849ac
:1015f0008c4247d81b119d381b18414956228b52eb
:101600003f4c3423e15c0022002001f005fc03f094
:10161000f9fc01aba26a02922c22a25c1a7200228f
:101620001a70384b01321a70374b1b78db07a9d57b
:10163000334b1b69002ba5d001a901209847a1e7d6
:1016400040428010404243b2c3e72d4909682f4c05
:101650000d192f4ca54207d89d3a12181b11d2180c
:1016600027495623ca52cbe72a4ca44661442a4c48
:10167000a142c5d8a43a11181b11cb1820495622f3
:101680008b52bde723498c46624423498a42b7d82e
:101690001b11a4381b181a4956228b52b0e7164a60
:1016a000138808218b431380154c32238022e25487
:1016b0000233e15c0022002001f0aefb03f0a2fc4b
:1016c00001aba26a02922c22a25c1a72002258215b
:1016d00062541a700b4b01321a700b4b1b78db07ec
:1016e00000d44fe7064b1b69002b00d14ae701a944
:1016f0000120984746e7c0464c040020fffeffff4c
:1017000060030020550400205004002080ec9ecc93
:0c17100080e36a0980e58fe7c0c2da06ba
:020000040000fa
:10171c00f0b5c64600b504000d0003f0b7fd012876
:10172c0000d0dce01d2c00d9dde0a3007c4ad358ae
:10173c009f46002d00d1d8e07a4b1d610020cfe0f0
:10174c006c79002c0bd1774b00229a649a87da873c
:10175c0000214032995401329c540020c0e02e8864
:10176c00002e00d1c3e02f79002f00d1c1e002225e
:10177c00ab5e98466b4d7001801b80008019c000d9
:10178c00390000f0e5fa01f0f3fe03f031f9a8643a
:10179c00ae874346eb874023ef540133ec540020d3
:1017ac009ee02a785f4b1a76200099e02b685e4aff
:1017bc0099185e4a91420ad95d495e4a9a188a4242
:1017cc0005d95d495d4a9a188a4200d993e0554a79
:1017dc001360002084e02a68524b5a6000207fe09e
:1017ec002a88504b9a8200207ae029784d4a22238d
:1017fc00d154002074e02b78012b00d97de04949ad
:10180c0023228b5400206be02b78012b00d976e03f
:10181c00444925228b54002062e02b78da1f022adf
:10182c0000d96ee03f4936228b54002058e02978cd
:10183c003c4a2423d154002052e02b78012b62d84f
:10184c00384934228b5400204ae02a88354bda82fe
:10185c00002045e02b785a1e032a56d831493322f2
:10186c008b5400203ce02f4b2a68da602a682d4b01
:10187c009a60002034e02b78032b48d82949372272
:10188c008b5400202ce02b785a1e162a41d825495f
:10189c0038228b54002023e02b785a1e162a3ad873
:1018ac00204939228b5400201ae02548027a29005d
:1018bc0003f07efc002013e02b781a1c082b00d9b7
:1018cc00082218492123ca54002009e02b78da1f7a
:1018dc00052a22d8134935228b54002000e004201d
:1018ec0004bc9046f0bd0520fae70320f8e703207e
:1018fc00f6e70320f4e70520f2e70520f0e70520e2
:10190c00eee70520ece70520eae70520e8e70520ef
:10191c00e6e70520e4e70520e2e70520e0e7c0461e
:10192c000c38000060030020c08bd5f780d5430233
:10193c00c0c2da0680e58fe780e36a0980ec9eccb2
:04194c0079030020fb
:020000040000fa
:10195000f0b54f464646d64644024500c0b58846d7
:10196000640a2d0ec70f002d49d0ff2d4fd08023c4
:10197000e400db041c43002399469a467f3d43461e
:1019800042465e02d20f5b00760a1b0e904646d09e
:10199000ff2b12d080220020f600d2047f3b16439a
:1019a000ed186a1c434694464a467b400f2a00d9ec
:1019b00074e0704992008a589746ff35002e54d142
:1019c0004a4602231a4391460220eae7434634007e
:1019d00082465246022a2ad0032a00d1c3e0012ab5
:1019e00000d082e0002200246402d205600adb07f6
:1019f000104318431cbc90469946a246f0bd002ceb
:101a000027d104239946033b00259a46b7e7002ccb
:101a100019d108239946063bff259a46afe7002ec9
:101a200008d14a4601231a4391460120b9e7ff2213
:101a30000024d9e7300002f0f5fe431f2d1a9e4026
:101a4000763d0020ade70c239946093bff259a46d9
:101a500095e7200002f0e6fe7625431f9c40002318
:101a60006d422d1a99469a4689e74a4603231a433e
:101a70009146032095e73b00abe780240023e40375
:101a8000ff22b1e78023db031c4245d01e4243d135
:101a900033435c02640a4346ff22a5e7200c24047a
:101aa000210c0f00320c3604360c77435143464369
:101ab000504389193a0c5218964203d980214902a1
:101ac000884640443f0411043f0cc9198c01661e2e
:101ad000b441890e2143140c2418a4010c432201a3
:101ae0003cd50122610814400c4360467f30002839
:101af0001add620704d00f222240042a00d00434e9
:101b0000220103d560461c4a80301440fe288edc3a
:101b1000a401640ac2b267e78020c00304436402e0
:101b2000640a3b00ff225fe70122101a1b2800dd38
:101b300058e762469e3221009440c140621e9441a3
:101b40000c43620704d00f222240042a00d0043440
:101b5000620105d4a401640a002245e7ac46c4e74b
:101b60000122002440e78022d20314436402640a65
:0c1b7000ff2239e774460000fffffff77a
:020000040000fa
:101b7c00bc0300201c000000000000001804002022
:101b8c0004000000000000001c0400200400000001
:101b9c0000000000200400200400000000000000f1
:101bac009f0200200100000000000000240400201f
:101bbc00040000000100000080bb0000280400208d
:101bcc00040000000100000030000000150400209b
:101bdc0001000000000000002c04002004000000a4
:101bec000000000051040020010000000000000073
:101bfc00540400200100000000000000300400200c
:101c0c000400000000000000340400200400000068
:101c1c000000000038040020040000000000000058
:101c2c00000000209001000000000000f0030020e4
:101c3c0008000000000000003c040020040000002c
:101c4c00000000004e040020020000000000000014
:101c5c00600300205c00000000000000160400205f
:101c6c0002000000000000005204002002000000ee
:101c7c0000000000900100200f0100000000000097
:101c8c005004002001000000000000004c04002063
:101c9c0002000000000000005504002001000000bc
:101cac00000000000e0400200200000000000000f4
:101cbc00f803002008000000000000004004002091
:101ccc000400000000000000560400200100000089
:101cdc0000000000a0020020c00000000000000076
:101cec00d80300200c0000000000000000040020bd
:101cfc00080000000000000008040020060000009e
:101d0c0000000000e40300200c00000000000000b4
:101d1c004404002004000000000000001004002017
:101d2c00050000000100000016212c3716000000f1
:101d3c004804002004000000000000000000000027
:101d4c0000000000222222222222222222222222ef
:020000040000fa
:101d5c0003460b437fd4002243088b4274d3030900
:101d6c008b425fd3030a8b4244d3030b8b4228d3a1
:101d7c00030c8b420dd3ff22090212ba030c8b42c7
:101d8c0002d31212090265d0030b8b4219d300e067
:101d9c00090ac30b8b4201d3cb03c01a5241830bec
:101dac008b4201d38b03c01a5241430b8b4201d39c
:101dbc004b03c01a5241030b8b4201d30b03c01ac5
:101dcc005241c30a8b4201d3cb02c01a5241830a3f
:101ddc008b4201d38b02c01a5241430a8b4201d36e
:101dec004b02c01a5241030a8b4201d30b02c01a98
:101dfc005241cdd2c3098b4201d3cb01c01a5241ff
:101e0c0083098b4201d38b01c01a524143098b4287
:101e1c0001d34b01c01a524103098b4201d30b0170
:101e2c00c01a5241c3088b4201d3cb00c01a524195
:101e3c0083088b4201d38b00c01a524143088b425a
:101e4c0001d34b00c01a5241411a00d201465241f3
:101e5c00104670475de0ca0f00d04942031000d312
:101e6c004042534000229c4603098b422dd3030a67
:101e7c008b4212d3fc22890112ba030a8b420cd377
:101e8c00890192118b4208d3890192118b4204d3a0
:101e9c0089013ad0921100e08909c3098b4201d320
:101eac00cb01c01a524183098b4201d38b01c01a5a
:101ebc00524143098b4201d34b01c01a52410309d1
:101ecc008b4201d30b01c01a5241c3088b4201d380
:101edc00cb00c01a524183088b4201d38b00c01a2d
:101eec005241d9d243088b4201d34b00c01a524104
:101efc00411a00d20146634652415b10104601d391
:101f0c004042002b00d54942704763465b1000d31a
:101f1c00404201b5002003f01ffa02bd0029f8d0a1
:041f2c0016e77047fd
:020000040000fa
:101f300070b50120634b1870634b644a1a60644aa1
:101f40005a60644a9a6034215854072436229c54bb
:101f5000143a0e259d5411329854002218355a55c2
:101f60001e3d9d822d355c551c341a5501341a5581
:101f700001341a559c345c765f359d76dc76a03c46
:101f8000913d1d5519760021da8211347d351d559c
:101f9000514cdc60372418550134753d1d55013412
:101fa00007351d550d3c19554c4c9c624c241a5359
:101fb000023419555a64013419559a640f3c195565
:101fc0009a87da87413299541332995401329854de
:101fd00003329954283a9b5c002b1bd1404802f0f5
:101fe00015fe082802d001f0f7ff24e03d4802f07a
:101ff0000dfe0828f7d13c4802f008fe0828f2d16f
:102000003a4802f003fe0828edd12f4a302301217f
:10201000d15410e02c4c2d23e05c02f02fff2e2336
:10202000e05c02f02bff2f23e05c02f027ff50233f
:10203000e05c02f023ff02f011fd03f090f90028ac
:1020400036d002f04dfd01220021012000f0e4fe17
:102050001d4b186802f04afa42213b2002f0aefd07
:1020600020243b2002f070fe0442fad123210c20f0
:1020700002f0a4fdaa211f2002f0a0fdff213220c2
:1020800002f09cfd4021312002f098fd0122012147
:10209000002000f0c1feff21232002f08ffd42202e
:1020a00002f052fe084a3123d05402f0abff70bd5b
:1020b000054c55230022e25403f04ff95423e05419
:1020c000bfe7c046550400206003002000a1bc33d8
:1020d000a861000050c30000983a0000a001002051
:1020e0008d0300208e0300208f030020b00300200a
:020000040000fa
:1020f000f0b5de4657464e464546e0b583b08046cd
:102100009246002939d0002837d0674a5268072004
:102110001040019045d15246002a00d1a5e0624806
:10212000007e420705d560480425826a027e2a4265
:10213000fbd15d48448b04252c434483047e8025d9
:102140002c430476002291468b4201d95a1a9146bb
:10215000019a002a04d05b0849084a465208914671
:10216000514d01242a7e2242fcd0002000274e4cf3
:102170000426012500908b462fe00020002b69d01b
:102180005246002a6dd0484a5268073010400190ec
:1021900000d17de0002900d080e0da0705d50020dd
:1021a00058e0ca075fd4002bf7d14046441ea04137
:1021b00040420140afe77a004046125ad205d20da4
:1021c000a262013712e0394aa26238e0009859460b
:1021d000227e2a42fcd000908b465f4527d0019a90
:1021e000002ae8d14246d25da2620137002bedd031
:1021f00000985946227e3242fcd000908b46a26a5b
:1022000001009842e9d20198002804d15046425476
:1022100001310091e1e7009948008446d205d20dd2
:10222000504661460a52009901310091d5e74a466d
:10223000002a09d0019a002ac5d1ff32a2620122e8
:1022400052429446e144d1e7174902320b7e1342d1
:10225000fcd0012003b03cbc90469946a246ab4658
:10226000f0bd0020f6e70020f4e70f4b187e0023b6
:10227000420700d557e70c4b588b04242043588362
:10228000187e8024204318760023002291465fe7c1
:102290004246002a00d03ee7019940e7ca0700d431
:1022a0007be70020d6e7c04600100042ff01000097
:020000040000fa
:1022b000f0b557464e464546de46e0b5040083b0cd
:1022c0000d00924699468b4230d82dd04946504653
:1022d00002f0c8fe29000600200002f0c3fe331af7
:1022e0009846203b9b4633d45a4653469340424639
:1022f0001f00534693401e00af423ad8af4200d170
:102300007be05b46a41bbd41002b00da78e0002295
:1023100000230092019301235a4693400193012325
:1023200042469340009328e08242cfd90022002306
:10233000009201930c9b002b01d01c605d60009803
:10234000019903b03cbc90469946a246ab46f0bd0d
:10235000424620239b1a5246da40414613004a4621
:102360008a40170042461f43534693401e00af4227
:10237000c4d900220023009201934346002bd9d0f8
:10238000fb079c46614672080a437b0846460ee0fe
:10239000ab4201d1a2420cd8a41a9d4101202419bc
:1023a0006d410021013e24184d41002e06d0ab4264
:1023b000eed9013e24196d41002ef8d10098019903
:1023c0005b4600196941002b25db2b005a46444629
:1023d000d3402a00e2401c005b461500002b2bdb9b
:1023e00026005f46be40330026004746be4032000e
:1023f000801a9941009001919ce7a342b9d880e7e7
:102400004246202300219b1a0022009101920122c2
:10241000da40019283e7424620239b1a2a0046466f
:102420009a402300f340444613432a00e2401c0034
:102430005b461500002bd3da2023424626009b1a68
:10244000de402f00b4464646b74066463b00334365
:04245000cae7c046d1
:020000040000fa
:10245400f0b587b002f042fb4e4c2d23e05c02f055
:102464000bfd4123e35c002b34d04a4ca38f142290
:1024740053434025635502f031fb002002f026fa55
:10248400206802f031f84c230022e252013200218c
:10249400002000f0bffc0921122002f08dfb012274
:1024a4000021052000f0b6fc635d002b12d000244f
:1024b400394d384f3e00280002f0defd3e23fa5e1f
:1024c40000216b5e9a424edb0134e4b24023f35c9c
:1024d400a342f0d8012002f0f9f90420fef706fc2b
:1024e4002e4e3178222002f067fb0a2002f02afceb
:1024f400f0210140082001430a2002f05dfb402145
:10250400402002f059fb0021412002f055fb214cf0
:102514003425615d0122012000f07cfc3278204bdf
:102524001968002002f024f8615d0022032000f005
:1025340071fc02f0d1fc1b4b18605960e268002a60
:1025440002d1002007b0f0bd5101891a8900891811
:10255400c900104a2f23d05c00230093124b0022a1
:1025640000f0eafdede7002002f0caf902f048fdb0
:1025740003ab07221a700d4b063a1a700c4b1b78ea
:102584009b07a7d5034b1b69002ba3d003a90220eb
:102594009847d6e760030020520400205604002028
:1025a40040040020f803002061420000550400208c
:0425b40050040020af
:020000040000fa
:1025b80070b53f2002f0c4fb430700d492e04a4aba
:1025c8002323d35c012b6cd1830760d514002f2300
:1025d800d05c02f04ffc2e23e05c02f04bfc02f0d2
:1025e80003fe2c23e35c5822a25cdbb293421fd08b
:1025f8003d4a2c23d35c002b24d03b4a5823d35c80
:10260800002b25d0384a2c23d35c5821525c9b1ac6
:10261800002b2adc02f03afd002002f06ff9334a61
:10262800138808210b431380022002f043fc59e071
:102638002d4a2c23d35c002bdad05823d35c002bf3
:10264800e8d1d5e701222a49002002f06ff8d4e743
:1026580014002c25525dd2b2a16a002002f066f85f
:10266800635ddbb25822a354d4e71f4c5825615d43
:102678002c26a25d635dd21ad2b2a36a9c4661443d
:10268800002002f053f8a35ddbb26355c2e7174a96
:10269800118880235b000b431380022002f00afca0
:1026a80020e0114c2f23e05c02f0e4fb2e23e05cd9
:1026b80002f0e0fb21002c310122002002f036f864
:1026c8002c23e25cd2b2a16a002002f02ff800208d
:1026d80002f014f9054a138808210b4313800220dd
:1026e80002f0e8fb70bdc046600300204c040020e7
:0426f8008c0300202f
:020000040000fa
:1026fc00444b4e225a6119004d3acb681a42fcd019
:10270c00404b00229a6101321a613f4b5a710732d9
:10271c009a713e4b3e4a5a62190008224b681a4283
:10272c00fcd13c4b00221a8319000132ff32cb68da
:10273c001342fcd0384b1b689b0e9b0280229200ec
:10274c001343344ad361314a80234121d1501000c4
:10275c003f31402243581a42fcd02e49802252006d
:10276c00cb681342fcd02b4b2c4a1a6219008022e6
:10277c005200cb681342fcd0264b294a1a8319000d
:10278c008022d200cb681342fcd0204b254a1a621f
:10279c00190004224b681a42fcd11c4b224a9a6243
:1027ac00190010224b681a42fcd1184a8c23402184
:1027bc00d15010004c31402243581a42fcd0134add
:1027cc00d8234021d15010009831402243581a424e
:1027dc00fcd00e4aec234221d1501000aa314022e9
:1027ec0043581a42fcd0094af8234221d150100018
:1027fc00b631402243581a42fcd0064b00221a75bf
:10280c007047c04600100040000400400018004013
:10281c0005010100000c004020608000b8053f1c41
:0c282c0006080000070101000701300051
:020000040000fa
:1028380010b582b0002002f047f8434b18880028f2
:1028480055d10430fef750fa404a3423d35c012bab
:1028580050d0bf21352002f0adf93c4c3823e15c63
:10286800122002f0a7f93923e15c132002f0a2f943
:102878000d21402002f09ef9412002f061fa3f212b
:1028880049420143c9b2412002f094f9002356227b
:102898000021a1522a3aa3542c32a3542a4b1b8854
:1028a800002b34d0294a3423d35c012b37d00022a3
:1028b8000021052000f0acfa234b1a885101891a2f
:1028c80089008918c900214a2e23d05c002300936f
:1028d8001f4b002200f02efc1c4bd968002903d0a6
:1028e800194b1b88002b20d1002002b010bdfef729
:1028f800fbf9a9e70121222002f05cf90021402020
:1029080002f058f90021412002f054f9c6e70f4ab5
:102918003433d15c0022052000f07afadce700228b
:102928000121062000f074fad6e74b015b1a9b00e0
:102938005918c900054a2f23d05c00230093054b82
:10294800002200f0f7fbcfe70e0400206003002010
:08295800b54a000061420000d5
:020000040000fa
:10296000002243088b4274d303098b425fd3030ace
:102970008b4244d3030b8b4228d3030c8b420dd3e1
:10298000ff22090212ba030c8b4202d3121209026f
:1029900065d0030b8b4219d300e0090ac30b8b42ad
:1029a00001d3cb03c01a5241830b8b4201d38b035b
:1029b000c01a5241430b8b4201d34b03c01a524100
:1029c000030b8b4201d30b03c01a5241c30a8b4243
:1029d00001d3cb02c01a5241830a8b4201d38b022e
:1029e000c01a5241430a8b4201d34b02c01a5241d2
:1029f000030a8b4201d30b02c01a5241cdd2c30944
:102a00008b4201d3cb01c01a524183098b4201d3bf
:102a10008b01c01a524143098b4201d34b01c01aaa
:102a2000524103098b4201d30b01c01a5241c30822
:102a30008b4201d3cb00c01a524183088b4201d391
:102a40008b00c01a524143088b4201d34b00c01a7d
:102a50005241411a00d20146524110467047ffe7e9
:102a600001b5002002f07efc02bdc0460029f7d06f
:042a700076e770474e
:020000040000fa
:102a740010b582b03b4b1a78042a4cd893003a4ada
:102a8400d3589f46022002f0d1fb032002f0cefb74
:102a9400802109040a00354802f00efc314bdb7832
:102aa400002b08d0ff2b13d12e4b0022da702d4bb4
:102ab40001221a702fe001f0b7fa02f0adfa02f029
:102ac40027fa284b02221a70da780132da7022e0ef
:102ad400244b0022da70eae702f098fb00281ad0af
:102ae40002f0defb002816d002f0dafb01001d4cd8
:102af4001f48fff731f96438a0700123237002f0f6
:102b040097fa072002f0d2fb05e001f06bfe154bab
:102b1400587003221a7002b010bd164c200002f047
:102b240035f902f033f805236a46137001946846b8
:102b340001f06efb4342584180000a4b1870eae7eb
:102b4400022002f06bfb032002f068fb01f0c0fae4
:102b54000028e0d0802100220904044802f0acfbe4
:102b6400d9e7c046080400208451000080280040b2
:082b74009c3f06001004002044
:020000040000fa
:102b7c0070b584b0314b1b88db060ad42f4b1b88f5
:102b8c00db0732d42d4b1b885b072ed4002004b0fe
:102b9c0070bd2a4a138810218b431380284c34268d
:102bac00a15d0122012000f031f901abe268029233
:102bbc0000251d70a15d0022002000f027f9214b9b
:102bcc0001221a705823e5541f4b1b785b0704d461
:102bdc0001f03efffff7a6f9d8e7194b1b69002b54
:102bec00f6d001a904209847f2e7144b1a88012665
:102bfc00b2431a801a8804218a431a8001ab134a03
:102c0c001268029200251d700d4c3423e15c0022e9
:102c1c00002000f0fbf802f0eff90a4b1e7058236d
:102c2c00e554094b1b789b07b0d5054b1b69002b52
:102c3c00acd001a902209847a8e7c0464c0400205c
:102c4c00600300205504002050040020f8030020ed
:020000040000fa
:102c5c00f0b54e4645465746de461c03e0b5240b00
:102c6c00324e0f034d00a1465c0084463f0b6d0da8
:102c7c00c90f9046640ddb0fb5422ad0b44219d06f
:102c8c00002d2bd13843834646424641002c02d1bd
:102c9c004846024328d0002e16d1994229d002234f
:102cac0001390b40013b18003cbc90469946a246aa
:102cbc00ab46f0bd4e4632432fd1002dedd13843fb
:102ccc0046424641002ee8d0002becd101235b425a
:102cdc00e9e73e00064320d1ac42ebd0002cdcd11e
:102cec0048460243d9d1dae75a460023002adad003
:102cfc00d5e7a5420adce7db4f45d0d810d000233e
:102d0c004f45d0d20029e1d00b00cce758424341cb
:102d1c00584202230340013bc5e702235b42c2e752
:102d2c00c445bcd80023c445bdd2ebe7ff07000067
:102d3c00f0b54e4645465746de461c03e0b5240b1f
:102d4c00314e0f034d00a1465c0084463f0b6d0dc8
:102d5c00c90f9046640ddb0fb54211d0b44214d0ac
:102d6c00002d30d13843834646424641002c14d1c5
:102d7c004846024311d15a460023002a17d010e0ce
:102d8c003e00064312d1ac421dd14e4632430dd10a
:102d9c00002d04d1384346424641002e0ed19942b3
:102dac0017d0022301390b40013b00e0022318002d
:102dbc003cbc90469946a246ab46f0bd002bf6d1e2
:102dcc0001235b42f3e7002ce9d148460243e6d1ec
:102ddc00e7e7a54206dd584243415842022303402f
:102dec00013be4e7a542e9db4f45dad806d00023e6
:102dfc004f45dcd20029e3d00b00d8e7c445d0d82e
:0c2e0c000023c445d3d2f5e7ff07000007
:020000040000fa
:102e1800f0b5d6464f4680b583b00192002902d15d
:102e2800831f012b2ad9072399461c000440012639
:102e38000e40012001f084ff0500070043b29a46c6
:102e48004b4603405246d20f96420ad0002b1ad165
:102e5800002e1ed178272f403900012001f0aafe4c
:102e68000023a3420ad0002c31d0019b012b16d09d
:102e7800f82139402143012001f09cfe03b00cbc2d
:102e880091469a46f0bdf8210140012001f092feda
:102e9800dee7782753461f4080210f43dce74120b7
:102ea80001f04eff002e0fd130210143c9b241205d
:102eb80001f080fef82139402143012001f07afe1b
:102ec800012001f07ffdd9e7cf210140efe7f8218c
:102ed8003940012001f06efe019b012bced101206b
:062ee80002f020facae727
:020000040000fa
:022eee00fee7fd
:020000040000fa
:102ef00070b52e4c03234a22a3540132a3548021df
:102f000060582b4a0243625010316058294a0243ec
:102f10006250d022a3540132a3548023db02373203
:102f2000a3501032a35088238022d205e250982566
:102f3000625180263606e6506651d20be25062514d
:102f40007c331201e25080239b01a36063611b0963
:102f5000a360636100221849002001f0bbfe00203d
:102f600002f05ef9002215490b2001f0b3fe0b20a0
:102f700002f056f9002212490c2001f0abfe0c20a1
:102f800002f04ef966510123a9225200a3545422a3
:102f9000ff32a3543a22ff325521a1545b3aa35485
:102fa0001f3aa35c05210b43a35470bd00280040c9
:102fb000008000c0008000803d4e00001d4e0000db
:042fc000fd4d0000c3
:020000040000fa
:102fc40070b5051e4ed0284b1c78002c02d000246e
:102fd400200070bd02f066f80028f9d02b68234a5f
:102fe40094466344224a9342f2d82b79022b1fd091
:102ff400012b23d00126764202f054f80028e7d0b2
:1030040001f0b4fb30000a3800f082fb1949fef7e6
:103014009dfc01f0f1fc184901f0a6fe124b0122bf
:103024001a70164b1d60287901f0deff0124cfe7ea
:1030340001f0c8f8431ccbd12e68dde701f0c2f8db
:10304400431c09d0fa218900fff788fc074bc218fa
:10305400074b9a42bcd800e009482e688642cbd977
:103064000600c9e70024b3e71504002018fcffff9d
:10307400c8bbce07751303420d3c00002c0400208e
:04308400b0bfce0704
:020000040000fa
:1030880070b502f0b1f8294a2c23d35c5821525c60
:10309800dbb2934219d0254a2c23d35c002b1ed0d7
:1030a800224a2c23d35c5821525c9b1adbb23e2b5c
:1030b8001bd91e4a2c23d35c5821525c9b1adbb2c5
:1030c8003f2b24d801f0e2ff70bd184a2c23d35cb3
:1030d800002be0d05823d35c002bf3d1dbe701228f
:1030e8001349002001f022fbdae7104c5825615df6
:1030f8002c26a25d635dd21ad2b2a36a9c466144b3
:10310800002001f013fba35ddbb26355dae7074c3f
:103118005825615da36a9c4661443f22002001f066
:1031280005fb635d3f33dbb26355cbe760030020eb
:043138008c030020e4
:020000040000fa
:10313c0070b504000e001d00ff283bd001011f4b91
:10314c005b181b7b002b37d1012a2fd01c4a0a207d
:10315c001c4bf318934230d8184b220199184d6030
:10316c0004988860d650184b01225a72174b0022d3
:10317c001a7001f019fa431c02d0864200d90600dd
:10318c0024010e4b1c190125257301f0b1fd861984
:10319c000f4b1e60186801f053ff0b4b10229a72f4
:1031ac0001325a72094b1d70082006e001f0a0fd97
:1031bc00361acbe7152000e0152070bd000000206a
:1031cc00efd8ff7ff0d8ffff00200042540400200e
:0431dc00300400209b
:020000040000fa
:1031e00070b541004602c40ffe20090e4b1c750a43
:1031f000184214d0e0239b006d07360bcb1800213a
:103200000a0d280012051c4d32435b052a405b085d
:1032100013435b00e4075b082343190070bd0029da
:1032200014d1002d1ed0280001f0fcfa0a281cdc65
:103230000b232a001b1ada40030015339d400f4b65
:1032400012031b1a5b05160b5b0dd8e7002d06d089
:10325000320b802636036d071643094bcfe7084b28
:103260000026cce700230026c9e703002a000b3b19
:103270009a400025e3e7c046ffff0f808903000066
:04328000ff07000044
:020000040000fa
:1032840010b5224a137801210b4313701100012257
:103294004b681a42fcd11d490b78102210200343bd
:1032a4000b701b4bcb611b4b0b621b4b0b611b4b02
:1032b40000201872013018751f3002241c540c3081
:1032c40001341c540c301a540c301a540c301a5457
:1032d4000c301a540c301a540c301a540c30073475
:1032e4001c540c3001341c540c3001341c540c306c
:1032f4001a540c301a540c301a540b78022213430b
:103304000b7002224b681a42fcd110bd002400400d
:1033140011bb000001110100c31c0000a002002029
:020000040000fa
:10332400f0b583b004000d001c490a684b68009492
:10333400019512196b4116001f000e604f60184969
:103344000b60184b1e60184d2e6001f0eff8002141
:10335400164801f0cfff286801f008ff009800f03c
:10336400b1fb431c09d1124b01225a72114b0022aa
:103374001a7001f0f7fd03b0f0bd0d4b10229a72e4
:1033840001325a720b4b103a1a70074b1b6818180b
:10339400094b1860186801f057feeae7f0030020b3
:1033a4003c0400203804002034040020fd380000d0
:0c33b400002000425404002030040020df
:020000040000fa
:1033c000f0b5420046024d024c00c30f760a120ec1
:1033d0006d0a240ec80fff2a1fd0ff2c10d0002a20
:1033e0001fd171427141002c01d1002d1ed0002946
:1033f0000ed183421ed00221581e08400138f0bd74
:10340000002d26d1002af4d1714271410029f0d05b
:103410000028f4d101204042f1e7002e19d1ff2c01
:10342000eed0002ce5d1002de3d1e4e70020002e02
:10343000e5d0e0e7a24205dceadbae4202d8e7d302
:103440000020dce741424141484202210840013866
:10345000d5e702204042d2e7f0b5420046024d02d5
:103460004c00c30f760a120e6d0a240ec80fff2af5
:103470000dd0ff2c0fd0002a23d171427141002cb6
:103480000fd1002d0dd10020002e14d00de0002e04
:1034900010d1ff2c15d1002d0cd1002a03d171427f
:1034a0007141002908d1834210d00221581e0840e2
:1034b000013800e00220f0bd0028fcd1012040428c
:1034c000f9e7002cefd1002dedd1eee7a24205dcab
:1034d000f2dbae4202d8efd30020ece7414241419b
:0c34e0004842022108400138e5e7c046e0
:020000040000fa
:1034ec00f0b5c6461f4a204b00b50021934203d2cb
:1034fc00197001339342fbd10b231c4a9c46083ba9
:10350c0098461368546819000026214311d01700ff
:10351c0091680c3700290fd11a19002c03d01e709a
:10352c0001339342fbd13a001368546819002143cc
:10353c00edd104bc9046f0bd6146c91a1d19511855
:10354c00002c05d05a1c505c187013009542f9d110
:10355c00434623405a1e9341a4081c19a4003f194a
:10356c003a00e1e700000020000000207c1b000076
:020000040000fa
:10357c0070b5002812d0c317c5185d40c40f2800c1
:10358c0001f04af99e22121a962a11dcd2b20828ae
:10359c0001dd083885406802400a02e00024002260
:1035ac0000204002d205400ae4071043204370bdbe
:1035bc00992a0bdd052329001b1ad94003001b3364
:1035cc009d402b005d1eab4119430d00052801dd0c
:1035dc00431f9d402b0009490b406e0709d00f2655
:1035ec003540042d05d004335d0102d59f220b40dc
:1035fc00121a9b01580ad2b2d3e7c046fffffffb59
:020000040000fa
:10360c0010b584b01d4b4f22995c0131c9b299544d
:10361c000f3a9b5c8b4219d30e246c44200001f0b2
:10362c0027fd164b0022a15e4f229a5c4a43596c2f
:10363c008c4662445a64996c5022985c0023009327
:10364c000f4b0022fff774fd04b010bd0d4a10881b
:10365c0080239b0003431380084c636c58004b1e63
:10366c00594389b2fef774fb4c23e05200234f22de
:10367c00a3546364012001f01bfce5e76003002008
:08368c000d3600004c04002083
:020000040000fa
:10369400f0b54e464546de4657461c03e0b5240bbe
:1036a4001a4e0f034d00a1465c00db0f84463f0b0e
:1036b4006d0dc90f9046640d9b46b5421ad0b442b5
:1036c40010d00126a5420ed14f450cd10126c44588
:1036d40009d1594518d0002d05d138430600701e74
:1036e400864100e0012630003cbc90469946a24643
:1036f400ab46f0bd3b0001260343f4d1ac42f2d10a
:103704004b461343efd1e1e70026ece7ff07000047
:1037140070b5041e0dd001f083f89e22121a962a69
:103724000edcd2b2082801dd083884406002400a69
:1037340001e0002200204002d205400a104370bd7f
:10374400992a09dd030021001b3399404b1e99413e
:1037540005231b1adc400c43052801dd431f9c4054
:10376400230009490b40650709d00f252c40042c80
:1037740005d004335c0102d59f220b40121a9b0131
:10378400580ad2b2d7e7c046fffffffb8446101c9d
:1037940062468c46191c634600e0c0461fb5fff71d
:1037a400cbfa002801d40021c8421fbd10b5fff791
:1037b4006fff4042013010bd10b5fff7bdfa00287d
:1037c40001db002010bd012010bdc04610b5fff77d
:1037d400b3fa002801dd002010bd012010bdc04651
:1037e40010b5fff739fa002801dc002010bd0120d4
:1037f40010bdc04610b5fff72ffa002801da0020eb
:0838040010bd012010bdc046fb
:020000040000fa
:10380c00ae170000b8170000e2170000ec1700001c
:10381c00f6170000f218000014180000261800001b
:10382c003a180000461800005618000060180000f6
:10383c007218000078180000f218000082180000be
:10384c0092180000a4180000b6180000c41800005c
:10385c0002180000f2180000d8180000f21800003e
:10386c00f2180000f21800003e170000f2180000d9
:08387c00f21800004c170000d7
:020000040000fa
:1038840010b582b06b469c1d0623c02221006846f9
:10389400073001f001fb23785ab2002a11db6a4693
:1038a40007321278002a23d1073213406a469371f3
:1038b400032b17d0052b18d0002001f08bfa02b08f
:1038c40010bd6b4607331b78002b05d0012b06d0a7
:1038d400012001f07ffaf2e700f0bcf8efe700f016
:1038e400fbf9ece700f024f9e9e7fef763fee6e70d
:0838f400002001f06ffae2e789
:020000040000fa
:1038fc0010b5c30716d4c30618d5154b1b78002b6f
:10390c0014d0144b01225a72114b00221a7000f081
:10391c004bfe431c0bd10f4b01225a720c4b002255
:10392c001a7003e00c4a13680133136010bd0b4b83
:10393c001b68c0180a4b1860064a1021917201319d
:10394c005172034a10391170186801f079fbede7d8
:10395c0054040020002000423c04002034040020c9
:04396c003004002003
:020000040000fa
:1039700010b582b06b469c1d04233022210068469e
:10398000073001f08bfa227853b2002b0cdb0723af
:1039900013406a4693716a4607321278002a14d09f
:1039a000012a17d002b010bd6b4607331b78002bdd
:1039b00005d0012b06d0012001f00efaf2e700f04d
:1039c000bbffefe700f070fdece7052bead1fff756
:1039d0005bfbe7e7032be5d10a2000f0dfff00f0f7
:0439e00015fadfe70e
:020000040000fa
:1039e4008446081c6146ffe71fb5fff733fd002836
:1039f40001d40021c8421fbd10b500f0bbfb4042fa
:103a0400013010bd10b5fff725fd002801db0020b3
:103a140010bd012010bdc04610b5fff71bfd0028e6
:103a240001dd002010bd012010bdc04610b5fff718
:103a3400c5fc002801dc002010bd012010bdc046db
:103a440010b5fff7bbfc002801da002010bd0120ef
:043a540010bdc0469b
:020000040000fa
:103a580070b5122001f074f904007021122001f0f1
:103a6800a9f850232340502b00d070bd124d213ba4
:103a7800e85c01f0fff9002000f040ff1c2001f095
:103a88005ff92323eb5c002b03d0a3060ad443067b
:103a980008d50a4a138802210b431380022001f03b
:103aa80009fae2e7054a118880235b000b4313807b
:103ab800022001f0fff9d8e7600300204c04002041
:020000040000fa
:103ac800f8b5ce46474680b50600164c2500913518
:103ad800ff3501277f42144b98460023994607e09b
:103ae8004b462360012001f003fa1034ac4213d096
:103af800237b002bf9d02368b342f1d99b1b4345a4
:103b080004d923609f42f0d91f00eee74b4623609b
:103b1800012001f0edf9e8e738000cbc9046994621
:0c3b2800f8bdc04600000020e7030000cc
:020000040000fa
:103b340010b53f2001f006f9030700d410bd134a65
:103b44002f23d05c01f098f9012000f0d9fe104b2e
:103b54001b78022b03d00f4b1b889b06eed401f07d
:103b6400bbf90d4c22686368801a9941fa229200cd
:103b7400002300f03dfd20606160012001f09cf90c
:103b8400044a138804210b431380d7e76003002001
:0c3b9400550400204c040020f803002021
:020000040000fa
:103ba00030b5144d0a034b00120b5b0dc90f0024f6
:103bb000ab4204dd104ca34203dd104bcc182000b7
:103bc00030bd8024640322430d4ce41a1f2c08dd11
:103bd0000c48c31ada4013005c420029efd11c00e4
:103be000ede7094de040ac4663449a4013000343bf
:103bf000f2e7c046fe0300001d040000ffffff7f48
:0c3c00003304000013040000edfbffff84
:020000040000fa
:103c0c0070b5164b1b78012b00d070bd134b0022e6
:103c1c001a7001f081fbfff777fd1149fdf792fe59
:103c2c0000f002fd04000d0001f02afb2000290029
:103c3c00fff772fb0b4b1b68002be6d09e68002e27
:103c4c00e3d0fa22920000232000290000f0ccfce3
:103c5c00b047044b00221a60d7e7c0461504002079
:083c6c00d723f4412c040020d1
:020000040000fa
:103c740070b5174b1b889bb2002b0fd0144b1b88bd
:103c8400db070dd401221248012103889bb21400e2
:103c94001341194205d10132052af6d1002070bd25
:103ca400002401f0a3fa0a4d2b880122a240934379
:103cb4002b8001f0edf9a400064be35898472b88bc
:103cc4009bb2002bead0022001f014f9e6e7c046cb
:083cd40016040020d05000008e
:020000040000fa
:103cdc0010b5154a2f23d05c01f0caf8012000f072
:103cec000bfe0821122000f063ff104b1b78022bf7
:103cfc0003d00f4b1b889b0615d40d4a138801214a
:103d0c000b431380012001f0d3f801f0e1f8094cca
:103d1c0022686368801a9941fa229200002300f00d
:103d2c0063fc2060616010bd60030020550400201e
:083d3c004c040020f8030020f4
:020000040000fa
:103d4400f8b5164b1b889bb21f2b03d8134f3e00ac
:103d54003c000ee0fee7002501f048fa238801222a
:103d6400aa409343238001f093f9ad000c4beb5828
:103d7400984701213b889bb2002b0ed0074b1b8830
:103d84000b42e8d1012233889bb21500134119423a
:103d9400e2d10132052af6d1ece7f8bd4e04002049
:043da400bc5000000f
:020000040000fa
:103da80010b5134900230b70124a13481060012004
:103db8001071124890604b708b70cb7093330b71fd
:103dc800853b4b7105310420fdf7a4fc0c4c002207
:103dd8002100022000f07aff022001f025fa0022db
:103de8002100032000f072ff032001f01dfa10bd2e
:103df80008040020e403002000a24a04b54d000096
:043e080071520000f3
:020000040000fa
:103e0c0070b5144b1a7814495823cb5cd31adbb217
:103e1c00202b0ed90d0058240b5d104a1168c918bf
:103e2c002022002000f0a0fb2b5d2033dbb22b55b1
:103e3c0070bd094d58242b5d295d521ad2b2074929
:103e4c000968c918002000f08ffb024b1b782b551a
:103e5c00eee7c0465604002060030020400400201a
:020000040000fa
:103e6c0070b5041e10d000f0d7fc134b1b1a5b0569
:103e7c005d0d0a2818dc0b2322001b1ada401530c2
:103e8c0012038440120b01e00025002200211203d2
:103e9c00130b0a0d20001205084c1a4322402b0567
:103eac0013435b00590870bd22000b38824012038b
:103ebc00120b0024eae7c0461e040000ffff0f802f
:020000040000fa
:103ecc0030b583b000f006fe002000f0fbfc104c77
:103edc00206800f005fb00254c23e552012200214f
:103eec000020fef793ff0921122000f061fe002252
:103efc0000210520fef78aff5023e05c0095054b5e
:103f0c0000220549fff714f9002003b030bdc0466c
:0c3f1c00600300200d3600002823000088
:020000040000fa
:103f280010b5fef701f81f2001f066f90c490120d1
:103f380000f0a6fd0b49022000f0a2fd0a4904206a
:103f480000f09efd0949082000f09afd084910205c
:103f580000f096fd0749202000f092fd10bdc046f4
:103f68008538000071390000813f0000354c0000a1
:083f78005d4c0000854c0000c7
:020000040000fa
:103f800010b582b06b469c1d02230c2221006846ae
:103f9000073000f083ff23785ab2002a0adb072299
:103fa00013406a4693716a4607321278032a0dd08d
:103fb00002b010bd6b4607331b78022b02d800f00d
:103fc00073faf5e7012000f007fff1e7052befd1c9
:063fd00000f06cfeece7be
:020000040000fa
:023fd600fee704
:020000040000fa
:103fd80000230d4a13700d4a13600d4a13600d4af1
:103fe80013600d4b19009131ff3100221a605a609d
:103ff8009a601a7310338b42f8d1084b01225a7217
:10400800074b00221a707047510400203c0400201e
:104018003804002034040020000000200020004262
:04402800540400201c
:020000040000fa
:10402c00114b01221a7019000b8c1342fcd10f4b4f
:10403c001b681a02e021c9000a409b065b0f1a4359
:10404c00094b9a8502225a7008325a73053a9a70b3
:10405c00074a1a8100225a8107229a711a00138c7e
:10406c009bb2002bfbd17047000c004320608000fa
:04407c00191800000f
:020000040000fa
:1040800010b5124b18691a6902218a431a611a691c
:104090000f4c22401a61014211d01a001b690b43d8
:1040a000136111000422cb681a42fcd0074b1b6934
:1040b000db0504d405490122cb681a42fcd0034b2e
:1040c00022229a616232da6110bdc04600140040bb
:0440d0001e003f008f
:020000040000fa
:1040d40070b501f0dff80400012802d000242000ac
:1040e40070bd0d4b01221a708021002209040b4877
:1040f40001f0e2f801f0b2f801f008f90848fef71f
:104104005fff051e03d0012000f05efce7e700f02e
:1041140045ff2c00f7e7c046080400208028004033
:04412400e403002090
:020000040000fa
:10412800114b124a1a60c0221a61be3a46215a54eb
:1041380001315a5401320b315a5401315a54002278
:1041480003315a5401315a5424395a5406315a54b5
:1041580002315a54453180200004585057315a547e
:104168001c395a547047c04600280040c000c0009f
:020000040000fa
:1041780070b542004e024c0045026d0a120ec30f84
:10418800760a240ec90fff2a0fd0ff2c11d0012068
:10419800a24200d070bdb542fcd18b420dd0002a9e
:1041a800f8d12800451ea841f4e70120002df1d1df
:1041b800ebe70120002eedd1e9e70020eae7c04651
:020000040000fa
:1041c80010b50f4b1b7b002b10d10e4b1900813102
:1041d800ff311a78002a09d110338b42f9d1012016
:1041e800404210bd084b1b68181afae700f082fd20
:1041f800054b1b688342f5d8034b1b68181af0e778
:0c420800000000201c00002030040020fa
:020000040000fa
:1042140010b504000d4b1b78012b12d10c4a2f232f
:10422400d05c00f029fe22780a4b1a7062680a4baf
:104234001a60064b02221a70042000f03dfe002092
:1042440010bd012000f0a8fb0420f9e7550400206c
:0c425400600300205604002040040020fd
:020000040000fa
:1042600010b5104b1b78042b04d00e4b1b78022b7f
:104270000cd010bd0c4a138820210b431380002062
:1042800000f040fb022000f019fef2e7064a138816
:1042900010210b431380012000f034fb012000f0bb
:0c42a0000dfee6e7550400204c04002051
:020000040000fa
:1042ac0010b582b06b46d91d01230b700920fdf7a8
:1042bc002ffa0d4c21000120fdf72afa21001631ae
:1042cc000a20fdf725fa210035311620fdf720fada
:1042dc00210036310720fdf71bfa21001831002090
:0c42ec00fdf716fa02b010bd60030020c0
:020000040000fa
:1042f80010b5114b06225a6000f094fbfff710ff2f
:10430800fef7f8f900f01efe00f028fcfff78afe21
:10431800fff7b2fefef7b2ff00f0f4fb00f0bafac6
:10432800fef7e2fd00f058fffff7fafd00f03afa59
:0c433800fff736fd10bdc04600400041fc
:020000040000fa
:1043440010b5064c2378002b07d1054b002b02d067
:10435400044800e000bf0123237010bdbc0300200b
:104364000000000000000000044b10b5002b03d037
:104374000349044800e000bf10bdc046000000002f
:08438400c0030020000000004e
:020000040000fa
:10438c00f0b5c64600b50e4d00240e4f01239846dd
:10439c0004e07e6101340c35102c0ed02a7ae3b285
:1043ac009a42f7d17b694646a6401e42f2d02b6852
:1043bc00002beed068689847ebe704bc9046f0bd44
:0843cc00a002002000240040c3
:020000040000fa
:1043d40010b50a4b98470a4b9847fff785f8094be5
:1043e400ff229343084a9360084b9847084b984729
:1043f400084b984700f041fffee7c046bb4b000066
:10440400bb4b00000000000000ed00e01d44000074
:08441400bb4b0000bb4b000094
:020000040000fa
:10441c0070b500260c4d0d4c641ba410a64209d19e
:10442c000026fbf73ffe0a4d0a4c641ba410a64263
:10443c0005d170bdb300eb5898470136eee7b300d9
:10444c00eb5898470136f2e7bc000000bc000000b6
:08445c00bc000000c0000000dc
:020000040000fa
:10446400f8b500f06dff0e4c26009136ff3600279c
:1044740004e000f065ff1034b4420ed0237b002b1f
:10448400f9d02368002bf6d1277300f05dff636831
:10449400002beed0a0689847ebe700f055fff8bd7d
:0444a40000000020f4
:020000040000fa
:1044a80000b583b0122000f04bfc0c4bdb8a002bcc
:1044b80007d00a4b1b69002b03d0094a12789206d1
:1044c80005d40221122000f075fb03b000bd01a93c
:1044d80020209847019800f005f8f2e760030020d3
:0444e800500400205c
:020000040000fa
:1044ec0070b505000e49fef735fa04000c4928009a
:1044fc00fef7b6fa240208020949fef72bfa041952
:10450c00210cc9b2062000f053fb210ac9b20720c6
:10451c0000f04efbe1b2082000f04afb70bdc04633
:04452c00093d000045
:020000040000fa
:104530000d4b01221a6019000b691a42fcd10a4b7b
:1045400018221a6000221a73022159710749d96191
:1045500019623321997206490a6011325a721a009f
:104560001369002bfcd1704700200042ffff0000c0
:044570000004002023
:020000040000fa
:1045740070b50d0016000d4a942380210906d15010
:10458400143b184300f0ccfb002e08d000242878fc
:1045940000f0c6fb0134e4b20135a642f7d1034a68
:1045a400982380210906d15070bdc04600280040e0
:020000040000fa
:1045b40010b500f0a1fb0c4b18601a680b4b1b687c
:1045c4009a420bd2084b1868084b1b68c01a064b5a
:1045d4001a68064b1a60fff775fa10bd024b18688b
:1045e400024b1b68c01af2e7340400203804002090
:020000040000fa
:1045f400002b11d1002a0fd1002900d1002802d0ac
:104604000021c943081c07b4024802a140180290c3
:1046140003bdc0464d0d000003b4684601b50298c1
:10462400fdf744fe019b9e4602b00cbc7047c04699
:1046340070b5fef7d3fd00220b4b0d000400fcf710
:10464400e3f800f00bf90600fff70efc0022074b1d
:10465400fcf7daf802000b0020002900fbf73afd12
:1046640000f0fcf8310070bd0000f03d0000f041a6
:020000040000fa
:104674009c1a0000ce190000ce190000cc190000cd
:10468400d2190000d21900007a1a0000cc190000d7
:10469400d21900007a1a0000d2190000cc190000c7
:1046a400761a0000761a0000761a0000841a0000b8
:020000040000fa
:1046b40041024200c30f490a120e00207e2a03d988
:1046c4009d2a02d9094a98187047802000040143a2
:1046d400952a07dc9620821ad1404842002bf3d158
:1046e4000800f1e7963a9140f7e7c046ffffff7fe5
:020000040000fa
:1046f400340a0000d4080000d4080000d0080000e8
:10470400da080000da080000f0090000d008000010
:10471400da080000f0090000da080000d008000000
:10472400ec090000ec090000ec090000fe0900009f
:020000040000fa
:1047340070b50d0016000c4a942380210906d1504f
:1047440000f0eefa002e09d00024ff2000f0e8fa71
:1047540028700134e4b20135a642f6d1024a982306
:0c47640080210906d15070bd00280040e3
:020000040000fa
:1047700010b500f0e7fd0400094b01225a72094b05
:1047800000221a7000f0aafb074b18605960fff76f
:1047900011ff00f0f7fb200000f0d8fd10bdc0466f
:0c47a0000020004254040020f003002020
:020000040000fa
:1047ac00bff35f8f62b60b4bc02189005a580a4881
:1047bc001040c022120402435a5004221a605a5864
:1047cc001202120ac020000602435a5008221a6034
:0c47dc007047c04600e100e0ffff00ff56
:020000040000fa
:1047e8000d4b1b6a00205b0307d50b4b186a40066c
:1047f800c00f4022da611204da61074b1a6a0023fb
:10480800120307d5044a136a1b06db0f8021d16106
:0c4818000904d161c0187047002800405e
:020000040000fa
:104824001c2101231b04984201d3000c10391b0adc
:10483400984201d3000a08391b09984201d30009a0
:10484400043902a2105c40187047c04604030202f7
:1048540001010101000000000000000070b5002209
:104864000c4b04000d00fef7c5ff002804d1200006
:104874002900fff793f970bd064b002220002900a0
:10488400fbf728fcfff78af980231b069c4660444b
:08489400f1e7c0460000e0411d
:020000040000fa
:10489c0010b500f059fd0400fa218900fef75af812
:1048ac00054b186005492000fef754f8044b1860be
:1048bc0000f04efc10bdc0462404002040420f0006
:0448cc00280400209c
:020000040000fa
:1048d00010b50100084b1b68084a94466344084a17
:1048e0000020934205d8044a2423d35c581e8341f8
:1048f000581c00f077f910bd6003002080ec9eccbe
:0449000080e36a09dd
:020000040000fa
:1049040010b50100084b1b68084a94466344084ae2
:104914000020934205d8044a2423d35c581e8341c3
:10492400581c00f049fb10bd6003002080ec9eccb5
:0449340080e36a09a9
:020000040000fa
:1049380010b50a4a2f23d05c00f09cfa0020fff73c
:10494800ddff8021122000f035f9054a1388402147
:104958000b431380022000f0adfa10bd6003002065
:044968004c040020db
:020000040000fa
:10496c000a4ad369002bfcd1084b8f221a751a7690
:10497c001a00d369002bfcd1044a136802218b4323
:10498c001360d369002bfcd17047c0460010004265
:020000040000fa
:10499c00f8b50400084d094f0026013c0ad32868dd
:1049ac000028fad000f09cfcbe6000f04bfc002804
:1049bc00fbd0f2e7f8bdc0462804002010e000e070
:020000040000fa
:1049cc00f8b50400084d094f0026013c0ad32868ad
:1049dc000028fad000f084fcbe6000f033fc002804
:1049ec00fbd0f2e7f8bdc0462404002010e000e044
:020000040000fa
:1049fc009e2110b5c905041cfff71ef8002803d131
:104a0c00201cfff751fe10bd9e21201cc905fcf790
:104a1c007dfbfff749fe80231b069c466044f2e7b2
:020000040000fa
:104a2c008023db0500221a819a7901210a439a71ad
:104a3c009b7803221340022b08d08023db05013a1c
:0e4a4c009a701900013a8b791342fcd0704722
:020000040000fa
:024a5a00fee775
:020000040000fa
:104a5c0070b5094c80252d028823e5500c33e550a8
:104a6c006420fff795ff8423e5500520fff7a8ff8e
:0c4a7c009823e55070bdc04600280040a3
:020000040000fa
:104a8800022807d0042808d0012800d07047044b1a
:104a98001960fbe7034b1960f8e7034b1960f5e76a
:0c4aa800180400201c0400202004002042
:020000040000fa
:104ab40010b5084a2f23d05c00f0def90020fff780
:104ac4001fff054a138880210b431380022000f046
:0c4ad400f3f910bd600300204c0400202a
:020000040000fa
:104ae00010b5094a5523d35c002b00d010bd4b20d4
:104af00000f02af910210143c9b24b2000f05ef802
:0c4b000000f068faf2e7c04660030020f5
:020000040000fa
:104b0c00084b01221a8019000b691a42fcd1054b83
:104b1c00054a1a80012252421a620232ff325a812d
:0c4b2c007047c046002000400080ffffe2
:020000040000fa
:104b380010b5074a908980b2064b586006499181a2
:104b48001b68002b02d0034a9168984710bdc046e5
:0c4b580000200040d8030020ff81ffff78
:020000040000fa
:104b6400084b802292025a601a00d369002bfcd1b0
:104b7400044b01221a73044a1a601a00d369002be9
:0c4b8400fcd17047001000420e00010040
:020000040000fa
:104b900030b583b06b46dd1d00232b706a46941d33
:104ba0009371fff783fb29001420fcf7b7fd210068
:0a4bb0000620fcf7b3fd03b030bd92
:020000040000fa
:024bba00704742
:020000040000fa
:104bbc0070b50d00074c802636069423e650143b46
:104bcc00184300f0a9f8280000f0a6f89823e65046
:084bdc0070bdc0460028004036
:020000040000fa
:104be400012801d0002904d1064b802292019a6148
:104bf40070470228fcd10129fad1024b802292018c
:084c04005a61f5e700280040a9
:020000040000fa
:104c0c0070b5050000f098fb064b1b781424182b8c
:104c1c0004d82b700133034a13700c3c00f090fb4a
:084c2c00200070bd51040020be
:020000040000fa
:104c340010b582b06b469c1d0023032221006846f8
:104c4400073000f029f923787f2b01d802b010bd7a
:084c5400012000f0bff8f9e7b0
:020000040000fa
:104c5c0010b582b06b469c1d0623c022210068460d
:104c6c00073000f015f923787f2b01d802b010bd66
:084c7c00012000f0abf8f9e79c
:020000040000fa
:104c840010b582b06b469c1d042330222100684677
:104c9400073000f001f923787f2b01d802b010bd52
:084ca400012000f097f8f9e788
:020000040000fa
:104cac0010b500f09ffa074a3423d35c002b05d1d2
:104cbc00130000222c215a542c315a5400f0e4f9e0
:084ccc0010bdc046600300208a
:020000040000fa
:104cd40030b543001b189b00064ce3181b7a834233
:104ce40000d030bd43001d18ad0029516019426049
:084cf400f7e7c046a002002012
:020000040000fa
:104cfc00084a537980210b435371110004220b692c
:104d0c001a42fcd103491f224b799343fcd1014b2e
:084d1c005869704700200042b5
:020000040000fa
:104d240010b584b003006a46d01d03700e246c4491
:104d340000232380013322000121fdf7d7f92078d5
:044d440004b010bdea
:020000040000fa
:104d480070b5074c80252d069423e550153b184077
:104d5800fff7e4ffff20fff7e1ff9823e55070bd60
:044d680000280040df
:020000040000fa
:104d6c0070b504000d00002000f0d4f900212800db
:104d7c0000f0b0fa200000f0d7f98020400000f0dd
:044d8c009dfa70bd5f
:020000040000fa
:104d900010b50400064b1a790270042242705a784a
:104da00082709b78c37000f000fa207110bdc0467d
:044db00008040020d3
:020000040000fa
:104db40010b5040000f0f2f8044b00221a70044b02
:104dc4001b68002b01d02000984710bd0804002068
:044dd4004404002073
:020000040000fa
:104dd80010b5012808d0ff213e20fff7ebfeff2188
:104de8003f20fff7e7fe10bdff211130fff7e2fe7d
:024df800f9e7d9
:020000040000fa
:104dfc0010b5064b1b68002b07d001200021404248
:104e0c00fef7fefe014b1b68984710bd20040020e6
:020000040000fa
:104e1c0010b5064b1b68002b07d001200021404227
:104e2c00fef7eefe014b1b68984710bd1c040020da
:020000040000fa
:104e3c0010b5064b1b68002b07d001200021404207
:104e4c00fef7defe014b1b68984710bd18040020ce
:020000040000fa
:104e5c00064ad369002bfcd1044a136802210b4388
:104e6c001360d369002bfcd17047c0460010004280
:020000040000fa
:104e7c0010b5040000f060fa2401044b1b19002249
:104e8c001a7300f05dfa082010bdc0460000002027
:020000040000fa
:104e9c00f8b506000d0014001f004020fff74eff70
:104eac0004403c4134700120fff748ff2870f8bde6
:020000040000fa
:104ebc0010b5040000f096f9044b188820431880b4
:104ecc0000f0e2f8022000f011f810bd16040020ea
:020000040000fa
:104edc0000b583b0fff70cff0090034b1b680193e8
:0c4eec000098019903b000bd3c040020b8
:020000040000fa
:104ef80010b5040000f078f9034b18882043188097
:0c4f080000f0c4f810bdc0464e040020ac
:020000040000fa
:104f1400054a137e02210b43137611008022d2002e
:0c4f24000b8c1342fcd17047000c0043c2
:020000040000fa
:104f3000054a138802210b431380110002220b69da
:0c4f40001a42fcd17047c046002000401f
:020000040000fa
:104f4c00044b00221a609a60034a5a6004221a60c9
:0c4f5c007047c04610e000e063bb00009e
:020000040000fa
:104f6800054a136802210b431360110002220b69e2
:0c4f78001a42fcd17047c04600200042e5
:020000040000fa
:104f8400054a136802218b431360110002220b6946
:0c4f94001a42fcd17047c04600200042c9
:020000040000fa
:104fa00010b500f0cff9fff7bff8fff7dbfdfdf715
:0c4fb0009ffffff753ff00f0c1f910bd98
:020000040000fa
:104fbc00012801d0002903d1024b802292015a61b1
:084fcc007047c04600280040b8
:020000040000fa
:104fd40010b50220fff7f8fc024b802292009a6180
:084fe40010bdc046002800408a
:020000040000fa
:104fec0010b5012802d0022803d010bd00f07ef8c5
:084ffc00fbe700f085f8f8e77f
:020000040000fa
:1050040010b5044a5523d35c002b00d010bd00f02a
:08501400ddf8fbe7600300205a
:020000040000fa
:10501c00044a137802210b431370138c9bb2002ba0
:08502c00fbd17047000c0043aa
:020000040000fa
:10503400044a137802218b431370138c9bb2002b08
:08504400fbd17047000c004392
:020000040000fa
:10504c00044bd861190040220b691a42fcd1012093
:08505c007047c046002000422d
:020000040000fa
:1050640010b5002903d1fff7dbfb203002e0081c58
:08507400fff7d6fb10bdc0469a
:020000040000fa
:10507c0010b504001120fff761fe4008c0b2404299
:06508c002080002010bd91
:020000040000fa
:1050940010b5034c207800f057f90023237010bd9d
:0450a4009f02002047
:020000040000fa
:1050a800034b188880b243425841c0b27047c0468b
:0450b8004e04002082
:020000040000fa
:1050bc001b530000753c00000000000000000000c5
:0450cc0000000000e0
:020000040000fa
:1050d0007d2b0000611400005524000039280000d9
:0450e000cd3e0000c1
:020000040000fa
:1050e400002803d0bff35f8f62b6704772b6bff378
:0450f4005f8ffae7e9
:020000040000fa
:1050f8008023db0504225a7019004b781342fcd038
:0451080030bf7047fd
:020000040000fa
:10510c008023db0505225a7019004b781342fcd022
:04511c0030bf7047e9
:020000040000fa
:10512000034b9861190008220b691a42fcd17047a1
:04513000002000401b
:020000040000fa
:10513400034b1862190020220b691a42fcd17047f4
:045144000020004007
:020000040000fa
:10514800034908220b691a42fcd1014b9869704740
:0451580000200040f3
:020000040000fa
:10515c00034b00229a601a6801210a431a607047b7
:04516c0010e000e06f
:020000040000fa
:10517000034b5861190010220b691a42fcd1704789
:0451800000200042c9
:020000040000fa
:10518400882a00000e2b0000dc2a00001e2b0000e1
:04519400442b0000a8
:020000040000fa
:10519800eff3108072b6bff35f8f43425841c0b23d
:0251a80070474e
:020000040000fa
:1051aa000300011d00201a78504001338b42fad1c6
:0251ba0070473c
:020000040000fa
:1051bc00002310b59a4200d110bdcc5cc45401330d
:0251cc00f8e702
:020000040000fa
:1051d000024b802292005a617047c046002800406e
:020000040000fa
:1051e00010b58020400000f075f8fff7a1fe10bd5b
:020000040000fa
:1051f00010b500f0a7f8014b187010bd9f020020f9
:020000040000fa
:10520000024a1378034313707047c04650040020cd
:020000040000fa
:10521000024bd879c043c0b2c0097047000c0043ac
:020000040000fa
:1052200001238340014a13617047c04600240040b7
:020000040000fa
:1052300001238340014ad3607047c04600240040e8
:020000040000fa
:10524000024a136902218b43136170470014004026
:020000040000fa
:10525000024b1868c003c00f7047c04610e000e062
:020000040000fa
:1052600010b5fff7edfffff7e5fefff77ffb10bd81
:020000040000fa
:0e52700010b5012000214042fef7c8fc10bd21
:020000040000fa
:0e527e0010b50020fff739f800f03df8fce70e
:020000040000fa
:0c528c0010b58020400000f01ff810bd9d
:020000040000fa
:0c529800014b1878c0b27047550400208c
:020000040000fa
:0c52a400014b988c80b27047000c004356
:020000040000fa
:0c52b000c0b2014b98717047000c004325
:020000040000fa
:0c52bc0003695a401140594001617047dd
:020000040000fa
:0c52c80080b2014b58817047002000406c
:020000040000fa
:0c52d40080b2014b1881704700200040a0
:020000040000fa
:0c52e000014b186099607047d803002053
:020000040000fa
:0c52ec000138014b5860704710e000e0f2
:020000040000fa
:0c52f800014b1860596070470004002052
:020000040000fa
:0c53040010b5fef71dfdfdf7b3fb10bd5a
:020000040000fa
:0a53100010b50020fff78cff10bd60
:020000040000fa
:0a531a0010b5fff7a2f8082010bd3f
:020000040000fa
:0853240010b5fff70fff10bdeb
:020000040000fa
:08532c0010b5fff74dfb10bda9
:020000040000fa
:08533400bff35f8f62b6704702
:020000040000fa
:08533c0010b5fff7f9ff10bde9
:020000040000fa
:0853440010b5fff727ff10bdb3
:020000040000fa
:08534c0010b5fff7c9fe10bd0a
:020000040000fa
:06535400b7208004704741
:020000040000fa
:04535a000220704776
:020000040000fa
:04535e000020704774
:020000040000fa
:045364007047c04688
:020000040000fa
:0200000400807a
:04400000770600b08f
:020000040000fa
:0200000400807a
:04400400bb00ffffff
:00000001FF
