:020000040000fa
:10000000f07f0020091e000057230000d5230000c8
:1000100000000000000000000000000000000000e0
:10002000000000000000000000000000d7230000d6
:100030000000000000000000d7230000d7230000cc
:10004000d7230000d7230000d7230000d7230000c8
:10005000d7230000d7230000d7230000d7230000b8
:10006000d7230000d7230000d7230000d7230000a8
:10007000d7230000d7230000d7230000d723000098
:10008000d723000000000000d7230000d723000082
:10009000d7230000d7230000d7230000d723000078
:1000a00000000000d7230000d7230000d723000062
:020000040000fa
:1000b000f8b5c046f8bc08bc9e467047e91d000074
:1000c000f8b5c046f8bc08bc9e467047c11d00008c
:020000040000fa
:0800d0004c0e000001000000cd
:020000040000fa
:1000d800f0b5574645464e46de46e0b50f037f0a63
:1000e800450f3d43ac465d004e00cc0f690d8a4676
:1000f8001f03ca49550f83b0c0007f0ad200760d8e
:100108008046db0f2f4301928a4500d1c0e0554657
:10011800751ba9460125ab465d466b409b469c4234
:1001280000d190e04d46002d00dcbbe05346002b8b
:1001380000d1d4e08e4200d19fe280231b041f43ec
:100148004b46382b00dd64e11f2b00dd16e24946e3
:1001580020233d005b1a11009a409d40531e9a418e
:100168004b46a8464d46df406346e9404546db1b03
:100178009c460d431543451ba842804163464142b6
:10018800591a0b0200d41ce149024b0a984643460f
:10019800002b00d130e1404601f03cff0300083b52
:1001a800202229004746d21a9f40d1409d400f4344
:1001b8009e4200dd1ce19e1b731c1f2b00ddb2e17b
:1001c80020222800d21a390095409140d8406a1e52
:1001d800954101430d4339000026d9406b0709d0ea
:1001e8000f232b40042b05d02b1dab42ad416d4294
:1001f80049191d000b0200d4e6e0721c874b560516
:10020800760d9a4200d1eee0854fed080f40780751
:10021800284382467a02120b00211203130b0a0d9f
:1002280012051a437f4b3605134033435b00e4073e
:100238005b0823435046190003b03cbc90469946de
:10024800a246ab46f0bd4d46002d5bdd5346002b64
:1002580000d19ae08e4200d109e180231b041f439c
:100268004b46382b00dd6ee11f2b00dca5e1390081
:10027800203bd9404b46202b05d040234d465b1be5
:100288009f403a430192019d6f1ebd410d435ee1bf
:1002980065493d0089461543b144002d2dd09b4644
:1002a8009c422fd0494600294ad1604d711c2942f1
:1002b80000d0bde03d00614615430143aa46002e2b
:1002c80000d0f8e1002900d1bee1002d00d0fde109
:1002d8006346c0085a0702439246d9087de03b00ae
:1002e800134300d1bbe04b46013b002b00d1bbe1df
:1002f800894500d1bbe0994622e701256b409b4622
:100308009c42cfd14946002900d0b8e0711c8a46ea
:10031800554646490d4245d161460143002e00d05d
:1003280070e1002900d10de23b00134300d00fe239
:100338006346c0085b07184363468246d9084ce009
:100348005146891b89465c46002e00d0c4e06346ae
:10035800034300d150e10b00013b002b00d1e8e141
:100368002e4d9946a94200d0bfe0d2087b071a4318
:100378009246f90853460b4300d13be28022120310
:100388000a431203120b254e46e73b00134300d1e4
:100398007ae14b46013b002b00d121e1894566d02b
:1003a80099465de71d4b9a4500d1dee182188242ed
:1003b80089415646674449427918cd075208154382
:1003c80049086b0700d00be74b07ed081d43aa4609
:1003d800b146c908114b9945ccd04b460a035e0576
:1003e800120b760d18e71600002300229a4613e731
:1003f8000b49f61a3940f1e6280001f00bfe03001c
:1004080018331f2b00dccbe6083885402f00002569
:10041800cee63a4315006a1e9541ace6ff07000098
:10042800ffff7fffffff0f8001f8fffffe070000bf
:100438006146851acb1ba842894149428846190062
:100448004346c91a0b0088461b0200d529e10b0058
:100458002b439a4600d09ae600210024bde7634664
:10046800c0085b07184363468246d908b2e763466b
:10047800c0085b07184363468246d9087ae75346a3
:100488009b1b9946002e00d189e0d84b9a4500d194
:10049800e4e0802361461b0419438c464b46382b05
:1004a80000dd25e11f2b00dd6ae1494620234e4689
:1004b8005b1a6546010098409d40f140431e9841f3
:1004c8000d4305436046f0403f18ad1895428941f9
:1004d8004942c91956463fe0c44b9a4500d1bde090
:1004e800802361461b0419438c464b46382b00dd9c
:1004f800d1e01f2b00dd01e1494620234e465b1a5f
:100508006546010098409d40f140431e98410d43c7
:1005180005436046f0403f1a551baa4289414942ab
:10052800791a56462de63a001f3ef2401600202b57
:1005380003d04022d31a9f403d436b1e9d410021aa
:10054800354300263de73a4315006a1e95412d18ac
:1005580085428041414261440b0200d431e7a34bfc
:1005680001369e4200d13fe70122a14f6b08394076
:1005780015401d43cb071d4349082fe63900203b92
:10058800d9404b46202b05d040234d465b1b9f404e
:100598003a430192019d6f1ebd410d43ebe5634651
:1005a800034329d04b46013b002b00d116e18f4d68
:1005b800a94500d1d9e6994670e7494620233d0070
:1005c8005b1a9d4011009a40a8464d46531e9a4119
:1005d8004b46e9404546df400d431543bc44b6e76a
:1005e80085188542894167444942791801260b02da
:1005f80000d4e6e60226b7e7d2087b071a439246fc
:10060800f908e7e6002929d063463e005d07c008df
:10061800d90816432843002e00d188e080252d03f1
:10062800294207d0fe082e4204d15c463100d20888
:1006380078071043ca00410f1143c0004a07c00899
:1006480010438246c90895e6002d00d104e77807d3
:10065800d20810438246f9085c46bee67807d208fd
:1006680010438246f90885e6851a6346a842804108
:10067800df1b4042391a012683e56346c0085a0742
:1006880002439246d90875e66346c0085a070243f2
:100698009246d9089ee6634603431d00681e8541bd
:1006a8003ae7151a6346aa429241ff1a5242bb1a08
:1006b80098465c466be5002932d1002d72d0790747
:1006c800d2080a439246f9085c4653e66346851aff
:1006d800d91ba8429b415b42c91a0b024ad5151a7d
:1006e8006346aa429241ff1a5242b91a5c4675e51e
:1006f800634603431d00681e8541e6e66646203bc7
:10070800de404b46202b06d0494640235b1a614603
:100718009940084380464546691e8d413543fbe6ae
:100728006346c0085e07d908002d3fd13043824692
:1007380020e6151a6346aa429241ff1a5242b91a94
:1007480001261ee5d2087b071a439246f90844e6bb
:100758008518854289416744494279180b0200d4bb
:100768002fe6234b012619402be60023564600228c
:100778009a4651e52b000b439a4600d16ce620e6d9
:100788006646203bde404b46202b06d04946402398
:100798005b1a61469940084380464546691e8d416b
:1007a800354392e6802100240903e7e506438020cb
:1007b8000003014208d0fd08054205d1d2087f0791
:1007c8003a4316005c462900ca00710f1143f6002f
:1007d8004a07f60832439246c908cbe58518954280
:1007e800924167445142791800e7c046ff0700006c
:1007f800ffff7fff0023024e9a461a000ce5c04611
:10080800ff070000f0b557464e464546de46e0b5c0
:100818000c030600480087b092469846240b400d0a
:10082800cf0f002800d178e07b4b984200d190e0b0
:10083800730fe4001c438023784a1b041c4394462e
:10084800030063440093002399469b46f500434602
:1008580042461e03d20f5b005046360b5b0d904696
:1008680000d180e06c4a93421dd06c49420f8c46ff
:1008780000996344f6008c46164380229c44120477
:1008880063461643c2000020009300994346013195
:100898008c4649467b4001930f2900d9c6e0604b3e
:1008a800890059588f465c4952468c46009b324312
:1008b80063440093002a00d08de04946022319437f
:1008c800894600260220e0e74346019334001500dc
:1008d80083465b46022b64d0032b00d1f1e1012b48
:1008e80000d05ee100220026002500213603340beb
:1008f8000e0d360526434b4c120534401443019b1c
:100908006400db0764081c432800210007b03cbcd6
:1009180090469946a246ab46f0bd2500354352d0d5
:10092800002c00d176e1200001f074fb02000b3aa4
:100938001d2301009b1a3200350008398c40da402b
:100948008d401443384b1b1a0093002399469b464d
:100958007de7350025432fd108239946063b00241f
:1009680000909b4673e7524632431ed0002e00d1ba
:1009780042e1300001f04efb02000b3a1d2301005a
:100988009b1a52460839da408e40164352468a402e
:10099800009b2549181a03008c46634400930020e5
:1009a80073e71d4a002600259fe74946012319439e
:1009b80089460026012068e70c239946093b350043
:1009c80000909b4643e70423994600230093013394
:1009d80000249b463be74a4603231a4391460320db
:1009e800524652e7019774e70023802601933603a5
:1009f8000025094a79e780231b031c4200d1f3e054
:100a08001e4200d0f0e01e43434636031500360b65
:100a18000193014a69e7c046ff07000001fcffff98
:100a2800dc1f0000ffff0f800dfcffff2f0c2d04c3
:100a38002d0c2b00110c1204120c53439846130072
:100a480028007b43994648434844834640460b0068
:100a5800000c824658467b4350440293814506d990
:100a68009a4680235b029946ca4453460293030c74
:100a78009b4643461b0400041b0c98460300434452
:100a88000493330c99462b003604360c734398466e
:100a980033007b439a464b465d435f434346554488
:100aa800180c4019824503d980235b029a465744a3
:100ab800050ceb19059343461d042d0c0004401941
:100ac800250c2404240c270057436a4390462a0027
:100ad8003b0c9a464a436143414451448344884508
:100ae80003d980235b02984642443f040b0c3f0c19
:100af8000904c919270098464b4677435c436e435f
:100b08005d433b0c9946a4194c4442440395a642c4
:100b180004d980235b02984645440395029b3f0411
:100b28005b441e008342804123049846059b3f0c8a
:100b38004744984676188e428941474440423d18ba
:100b4800a846494293468a46c344da449f42bf4175
:100b580080458041039b934592418a458941984647
:100b6800534640427f420743240c524249420a43bb
:100b78003c19a418da0d049b75021d43681e8541b3
:100b8800534644446402f60d144335435a02154350
:100b9800e30173d501216a080d401543e2071543a7
:100ba80064084b4a6244002a43dd6b0709d00f21d1
:100bb8002940042905d0291da942ad416d42641977
:100bc8000d00e30104d5434a14408022d200624458
:100bd80041498a4200dde4e66107ed0864025205f6
:100be8000d43260b520d80e6802636032643360336
:100bf800360b0197394a78e601f00cfa03001a001f
:100c0800153220301c2a00dcb8e65646083b002284
:100c18009e40bde6300001f0fdf903001a001532d0
:100c280020301c2a00dc83e63400083b00259c4069
:100c380088e60121891a382900dd53e61f2920dcbe
:100c48002748220060442e0085408240ce40681e1e
:100c5800854132432a43cc40530709d00f21114024
:100c6800042905d0111d914292415242a4180a004c
:100c780023021fd501220026002536e6009b9c464c
:100c88008fe71f204042821a2000d040202903d03d
:100c9800144a6244944025436a1e95412a00072558
:100ca800024315400026002d07d00f2100241140d3
:100cb8000429d7d165076402260bd2081543002200
:100cc80013e68026360326433603360b034a0ce622
:100cd800ff030000fffffffefe070000ff07000004
:100ce8001e0400003e040000f0b54f464646d646b6
:100cf80044024500c0b58846640a2d0ec70f002d72
:100d080049d0ff2d4fd08023e400db041c4300238f
:100d180099469a467f3d434642465e02d20f5b00a3
:100d2800760a1b0e904646d0ff2b12d08022002058
:100d3800f600d2047f3b1643ed186a1c43469446de
:100d48004a467b400f2a00d974e0704992008a58bd
:100d58009746ff35002e54d14a4602231a4391463e
:100d68000220eae74346340082465246022a2ad045
:100d7800032a00d1c3e0012a00d082e00022002427
:100d88006402d205600adb07104318431cbc904676
:100d98009946a246f0bd002c27d104239946033b6f
:100da80000259a46b7e7002c19d108239946063b37
:100db800ff259a46afe7002e08d14a4601231a4379
:100dc80091460120b9e7ff220024d9e7300001f05d
:100dd80021f9431f2d1a9e40763d0020ade70c23d4
:100de8009946093bff259a4695e7200001f012f93c
:100df8007625431f9c4000236d422d1a99469a463a
:100e080089e74a4603231a439146032095e73b00a6
:100e1800abe780240023e403ff22b1e78023db0350
:100e28001c4245d01e4243d133435c02640a434608
:100e3800ff22a5e7200c2404210c0f00320c3604f5
:100e4800360c774351434643504389193a0c52189c
:100e5800964203d980214902884640443f04110440
:100e68003f0cc9198c01661eb441890e2143140c2c
:100e78002418a4010c4322013cd501226108144026
:100e88000c4360467f3000281add620704d00f2229
:100e98002240042a00d00434220103d560461c4aab
:100ea80080301440fe288edca401640ac2b267e7d1
:100eb8008020c00304436402640a3b00ff225fe70a
:100ec8000122101a1b2800dd58e762469e322100d5
:100ed8009440c140621e94410c43620704d00f2223
:100ee8002240042a00d00434620105d4a401640a13
:100ef800002245e7ac46c4e70122002440e78022ef
:100f0800d20314436402640aff2239e79c1f0000dd
:100f1800fffffff7f0b557464e464546de46e0b5bb
:100f2800040083b00d00924699468b4230d82dd0ec
:100f38004946504601f0c4f929000600200001f096
:100f4800bff9331a9846203b9b4633d45a4653463a
:100f5800934042461f00534693401e00af423ad882
:100f6800af4200d17be05b46a41bbd41002b00daf9
:100f780078e0002200230092019301235a4693400f
:100f88000193012342469340009328e08242cfd93f
:100f980000220023009201930c9b002b01d01c60bf
:100fa8005d600098019903b03cbc90469946a24602
:100fb800ab46f0bd424620239b1a5246da404146d2
:100fc80013004a468a40170042461f43534693403f
:100fd8001e00af42c4d90022002300920193434669
:100fe800002bd9d0fb079c46614672080a437b0850
:100ff80046460ee0ab4201d1a2420cd8a41a9d414c
:10100800012024196d410021013e24184d41002e74
:1010180006d0ab42eed9013e24196d41002ef8d11d
:10102800009801995b4600196941002b25db2b00cc
:101038005a464446d3402a00e2401c005b4615004d
:10104800002b2bdb26005f46be40330026004746b8
:10105800be403200801a9941009001919ce7a3425a
:10106800b9d880e74246202300219b1a002200912c
:1010780001920122da40019283e7424620239b1a1b
:101088002a0046469a402300f340444613432a0068
:10109800e2401c005b461500002bd3da20234246b1
:1010a80026009b1ade402f00b4464646b7406646e7
:0810b8003b003343cae7c046c8
:020000040000fa
:1010c0004e4b4e225a6119004d3acb681a42fcd061
:1010d0004a4b00229a6101321a61494b5a71073218
:1010e0009a71484b484a5a62190008224b681a42c2
:1010f000fcd1464b00221a8319000132ff32cb6823
:101100001342fcd0424b1b689b0e9b028022920034
:1011100013433e4ad3613b4a80234121d150100002
:101120003f31402243581a42fcd0384980225200b5
:10113000cb681342fcd0354b364a1a621900802224
:101140005200cb681342fcd0304b334a1a8319004b
:101150008022d200cb681342fcd02a4b2f4a1a625d
:10116000190004224b681a42fcd1264b2c4a9a6281
:10117000190010224b681a42fcd1224a8c234021cc
:10118000d15010004c31402243581a42fcd01d4a25
:10119000c8234021d15010008831402243581a42c0
:1011a000fcd0184acc234021d15010008c31402271
:1011b00043581a42fcd0134ad8234021d150100082
:1011c0009831402243581a42fcd00e4aec23422167
:1011d000d1501000aa31402243581a42fcd0094a8b
:1011e000f8234221d1501000b631402243581a4210
:1011f000fcd0064b00221a757047c0460010004014
:10120000000400400018004005010100000c0040ef
:1012100020608000b8053f1c06080000070101009f
:041220000701300092
:020000040000fa
:10122400002243088b4274d303098b425fd3030a21
:101234008b4244d3030b8b4228d3030c8b420dd334
:10124400ff22090212ba030c8b4202d312120902c2
:1012540065d0030b8b4219d300e0090ac30b8b4200
:1012640001d3cb03c01a5241830b8b4201d38b03ae
:10127400c01a5241430b8b4201d34b03c01a524153
:10128400030b8b4201d30b03c01a5241c30a8b4296
:1012940001d3cb02c01a5241830a8b4201d38b0281
:1012a400c01a5241430a8b4201d34b02c01a524125
:1012b400030a8b4201d30b02c01a5241cdd2c30997
:1012c4008b4201d3cb01c01a524183098b4201d313
:1012d4008b01c01a524143098b4201d34b01c01afe
:1012e400524103098b4201d30b01c01a5241c30876
:1012f4008b4201d3cb00c01a524183088b4201d3e5
:101304008b00c01a524143088b4201d34b00c01ad0
:101314005241411a00d20146524110467047ffe73c
:1013240001b5002001f052f802bdc0460029f7d0f3
:0413340076e77047a1
:020000040000fa
:10133800500200201c000000000000006c02002089
:1013480008000000000000007402002004000000f3
:1013580000000000800200200400000000000000df
:10136800840200200400000000000000aa020020ff
:1013780001000000000000008802002004000000b6
:101388000100000080bb00008c0200200400000067
:101398000100000030000000ab0200200100000046
:1013a800000000009002002004000000000000007f
:1013b80090010020c000000000000000ac020020e6
:1013c8000100000000000000ad0200200100000044
:1013d800000000009402002004000000000000004b
:1013e8009802002004000000000000009c02002079
:1013f8000400000000000000000000209001000030
:101408000000000078020020080000000000000032
:10141800a00200200400000000000000a802002034
:101428000200000000000000a402002004000000e8
:10143800000000000000000000000000222222221c
:020000040000fa
:10144800f0b54e4645465746de461c03e0b5240b2c
:10145800324e0f034d00a1465c0084463f0b6d0dd4
:10146800c90f9046640ddb0fb5422ad0b44219d09b
:10147800002d2bd13843834646424641002c02d1e9
:101488004846024328d0002e16d1994229d002237b
:1014980001390b40013b18003cbc90469946a246d6
:1014a800ab46f0bd4e4632432fd1002dedd1384327
:1014b80046424641002ee8d0002becd101235b4286
:1014c800e9e73e00064320d1ac42ebd0002cdcd14a
:1014d80048460243d9d1dae75a460023002adad02f
:1014e800d5e7a5420adce7db4f45d0d810d000236a
:1014f8004f45d0d20029e1d00b00cce758424341f8
:10150800584202230340013bc5e702235b42c2e77e
:10151800c445bcd80023c445bdd2ebe7ff07000093
:10152800f0b54e4645465746de461c03e0b5240b4b
:10153800314e0f034d00a1465c0084463f0b6d0df4
:10154800c90f9046640ddb0fb54211d0b44214d0d8
:10155800002d30d13843834646424641002c14d1f1
:101568004846024311d15a460023002a17d010e0fa
:101578003e00064312d1ac421dd14e4632430dd136
:10158800002d04d1384346424641002e0ed19942df
:1015980017d0022301390b40013b00e00223180059
:1015a8003cbc90469946a246ab46f0bd002bf6d10e
:1015b80001235b42f3e7002ce9d148460243e6d118
:1015c800e7e7a54206dd584243415842022303405b
:1015d800013be4e7a542e9db4f45dad806d0002312
:1015e8004f45dcd20029e3d00b00d8e7c445d0d85a
:0c15f8000023c445d3d2f5e7ff07000034
:020000040000fa
:1016040070b52e4c03234a22a3540132a3548021e3
:1016140060582b4a0243625010316058294a0243f1
:101624006250d022a3540132a3548023db02373208
:10163400a3501032a35088238022d205e25098256b
:10164400625180263606e6506651d20be250625152
:101654007c331201e25080239b01a36063611b0968
:10166400a360636100221849002000f09ffd002060
:1016740000f078fe002215490b2000f097fd0b20a6
:1016840000f070fe002212490c2000f08ffd0c20a7
:1016940000f068fe66510123a9225200a35454228b
:1016a400ff32a3543a22ff325521a1545b3aa3548a
:1016b4001f3aa35c05210b43a35470bd00280040ce
:1016c400008000c0008000803d2200001d22000038
:0416d400fd210000f4
:020000040000fa
:1016d80070b541004602c40ffe20090e4b1c750a66
:1016e800184214d0e0239b006d07360bcb1800215d
:1016f8000a0d280012051c4d32435b052a405b0881
:1017080013435b00e4075b082343190070bd0029fd
:1017180014d1002d1ed0280000f07cfc0a281cdc07
:101728000b232a001b1ada40030015339d400f4b88
:1017380012031b1a5b05160b5b0dd8e7002d06d0ac
:10174800320b802636036d071643094bcfe7084b4b
:101758000026cce700230026c9e703002a000b3b3c
:101768009a400025e3e7c046ffff0f808903000089
:04177800ff07000067
:020000040000fa
:10177c00f0b583b004000d001c490a684b68009456
:10178c00019512196b4116001f000e604f6018492d
:10179c000b60184b1e60184d2e6000f077fb00217b
:1017ac00164800f0e9fd286800f09efd009800f056
:1017bc00b7f9431c09d1124b01225a72114b00226a
:1017cc001a7000f045fd03b0f0bd0d4b10229a725b
:1017dc0001325a720b4b103a1a70074b1b681818cf
:1017ec00094b1860186800f05dfdeae778020020ec
:1017fc00a00200209c02002098020020b91a0000d0
:0c180c0000200042ad02002094020020e9
:020000040000fa
:1018180010b5214a137801210b43137011000122de
:101828004b681a42fcd11c490b7810221020034344
:101838000b701123cb61194b0b62194b0b61194bc0
:1018480000201872013018751f301a540c301a54c1
:101858000c301a540c301a540c301a540c301a54d8
:101868000c301a540c301a540c300a241c540c3006
:1018780001341c540c3001341c540c301a540c30f4
:101888001a540c301a540b78022213430b7002229c
:101898004b681a42fcd110bd002400400111010020
:0818a800031c00009001002068
:020000040000fa
:1018b000f0b5c6461f4a204b00b50021934203d223
:1018c000197001339342fbd10b231c4a9c46083b01
:1018d00098461368546819000026214311d0170058
:1018e00091680c3700290fd11a19002c03d01e70f3
:1018f00001339342fbd13a00136854681900214325
:10190000edd104bc9046f0bd6146c91a1d195118ad
:10191000002c05d05a1c505c187013009542f9d168
:10192000434623405a1e9341a4081c19a4003f19a2
:101930003a00e1e70000002000000020381300001a
:020000040000fa
:10194000f0b54e464546de4657461c03e0b5240b2f
:101950001a4e0f034d00a1465c00db0f84463f0b7f
:101960006d0dc90f9046640d9b46b5421ad0b44226
:1019700010d00126a5420ed14f450cd10126c445f9
:1019800009d1594518d0002d05d138430600701ee5
:10199000864100e0012630003cbc90469946a246b4
:1019a000ab46f0bd3b0001260343f4d1ac42f2d17b
:1019b0004b461343efd1e1e70026ece7ff070000b9
:1019c00070b5041e0dd000f029fb9e22121a962a33
:1019d0000edcd2b2082801dd083884406002400adb
:1019e00001e0002200204002d205400a104370bdf1
:1019f000992a09dd030021001b3399404b1e9941b0
:101a000005231b1adc400c43052801dd431f9c40c5
:101a1000230009490b40650709d00f252c40042cf1
:101a200005d004335c0102d59f220b40121a9b01a2
:101a3000580ad2b2d7e7c046fffffffb8446101c0e
:101a400062468c46191c634600e0c0461fb5fff78e
:101a50006bfd002801d40021c8421fbd10b5fff75f
:101a60006fff4042013010bd10b5fff75dfd00284b
:101a700001db002010bd012010bdc04610b5fff7ee
:101a800053fd002801dd002010bd012010bdc0461f
:101a900010b5fff7d9fc002801dc002010bd0120a3
:101aa00010bdc04610b5fff7cffc002801da0020ba
:081ab00010bd012010bdc0466d
:020000040000fa
:101ab80010b5c30716d4c30618d5154b1b78002bd1
:101ac80014d0144b01225a72114b00221a7000f0e4
:101ad80001fa431c0bd10f4b01225a720c4b002206
:101ae8001a7003e00c4a13680133136010bd0b4be6
:101af8001b68c0180a4b1860064a10219172013100
:101b08005172034a10391170186800f0cdfbede7e7
:101b1800ad02002000200042a00200209802002010
:041b28009402002003
:020000040000fa
:101b2c00f8b5ce46474680b50600164c25009135d3
:101b3c00ff3501277f42144b98460023994607e056
:101b4c004b462360012000f09ffb1034ac4213d0b5
:101b5c00237b002bf9d02368b342f1d99b1b43455f
:101b6c0004d923609f42f0d91f00eee74b46236057
:101b7c00012000f089fbe8e738000cbc9046994640
:0c1b8c00f8bdc04600000020e703000088
:020000040000fa
:101b980030b5144d0a034b00120b5b0dc90f00241e
:101ba800ab4204dd104ca34203dd104bcc182000df
:101bb80030bd8024640322430d4ce41a1f2c08dd39
:101bc8000c48c31ada4013005c420029efd11c000c
:101bd800ede7094de040ac4663449a4013000343e7
:101be800f2e7c046fe0300001d040000ffffff7f70
:0c1bf8003304000013040000edfbffffad
:020000040000fa
:101c040070b5164b1b78012b00d070bd134b00220e
:101c14001a7000f0ccfbfff7d1fe1149fff766f80c
:101c240000f09af904000d0000f0b0fb2000290038
:101c3400fff7a2fd0b4b1b68002be6d09e68002e1d
:101c4400e3d0fa22920000232000290000f064f976
:101c5400b047044b00221a60d7e7c046ab0200200d
:081c6400d723f4419002002097
:020000040000fa
:101c6c0070b5041e10d000f0d3f9134b1b1a5b0592
:101c7c005d0d0a2818dc0b2322001b1ada401530e4
:101c8c0012038440120b01e00025002200211203f4
:101c9c00130b0a0d20001205084c1a4322402b0589
:101cac0013435b00590870bd22000b3882401203ad
:101cbc00120b0024eae7c0461e040000ffff0f8051
:020000040000fa
:101ccc0010b5124b18691a6902218a431a611a69f4
:101cdc000f4c22401a61014211d01a001b690b43b0
:101cec00136111000422cb681a42fcd0074b1b690c
:101cfc00db0504d405490122cb681a42fcd0034b06
:101d0c0022229a61203ada6110bdc04600140040cc
:041d1c001e003f0066
:020000040000fa
:101d200000230d4a13700d4a13600d4a13600d4acb
:101d300013600d4b19009131ff3100221a605a6077
:101d40009a601a7310338b42f8d1084b01225a72f1
:101d5000074b00221a707047ac020020a00200203e
:101d60009c02002098020020000000200020004279
:041d7000ad020020a0
:020000040000fa
:101d740010b5114b06225a6000f0c0f900f088f942
:101d8400fff79cf900f0f6fa00f0cff900f072fad0
:101d940000f0e2f9fff798fffff73cfd00f0c6f909
:101da40000f078f800f017fb00f08ef9fff728fc3c
:0c1db40000f010fa10bdc04600400041d5
:020000040000fa
:101dc00010b5064c2378002b07d1054b002b02d011
:101dd000044800e000bf0123237010bd5002002022
:101de0000000000000000000044b10b5002b03d0e1
:101df0000349044800e000bf10bdc04600000000d9
:081e0000540200200000000064
:020000040000fa
:101e080010b50a4b98470a4b9847fff74dfd094b09
:101e1800ff229343084a9360084b9847084b98471a
:101e2800084b984700f0bcfafee7c046d9230000eb
:101e3800d92300000000000000ed00e0511e000062
:081e4800d9230000d92300009a
:020000040000fa
:101e500070b500260c4d0d4c641ba410a64209d190
:101e60000026fef725f90a4d0a4c641ba410a64271
:101e700005d170bdb300eb5898470136eee7b300cb
:101e8000eb5898470136f2e7bc000000bc000000a8
:081e9000bc000000c0000000ce
:020000040000fa
:101e98000d4b01221a6019000b691a42fcd10a4b3a
:101ea80018221a6000221a73022159710749d96150
:101eb80019623321997206490a6011325a721a005e
:101ec8001369002bfcd1704700200042ffff00007f
:041ed8006c02002078
:020000040000fa
:101edc0010b500f053f90c4b18601a680b4b1b68cb
:101eec009a420bd2084b1868084b1b68c01a064b59
:101efc001a68064b1a60fff713fe10bd024b1868e8
:101f0c00024b1b68c01af2e7980200209c020020ca
:020000040000fa
:101f1c00002b11d1002a0fd1002900d1002802d0aa
:101f2c000021c943081c07b4024802a140180290c2
:101f3c0003bdc0469104000003b4684601b5029885
:101f4c00fef7e6ff019b9e4602b00cbc7047c046f4
:101f5c0070b5fff7bbfb00220b4b0d000400fef726
:101f6c004ffc00f073f80600fff77afe0022074bd7
:101f7c00fef746fc02000b0020002900fef7a6f835
:101f8c0000f064f8310070bd0000f03d0000f0413d
:020000040000fa
:101f9c003c0e00006e0d00006e0d00006c0d00007c
:101fac00720d0000720d00001a0e00006c0d000086
:101fbc00720d00001a0e0000720d00006c0d000076
:101fcc00160e0000160e0000160e0000240e000067
:101fdc00340a0000d4080000d4080000d008000027
:101fec00da080000da080000f0090000d008000050
:101ffc00da080000f0090000da080000d008000040
:10200c00ec090000ec090000ec090000fe090000de
:020000040000fa
:10201c001c2101231b04984201d3000c10391b0a0c
:10202c00984201d3000a08391b09984201d30009d0
:10203c00043902a2105c40187047c0460403020227
:10204c0001010101000000000000000070b5002239
:10205c000c4b04000d00fff71ffd002804d12000dd
:10206c002900fff793fd70bd064b002220002900cc
:10207c00fef72cf8fff78afd80231b069c46604474
:08208c00f1e7c0460000e0414d
:020000040000fa
:102094000c4bc02212031a601a61012244215a54c3
:1020a40001315a540b315a5401315a54002201312e
:1020b4005a5401315a543232203999540632113962
:0820c400995470470028004008
:020000040000fa
:1020cc0010b500f07cf90400fa218900fff7a4f8a0
:1020dc00054b186005492000fff79ef8044b18606b
:1020ec0000f020f910bdc0468802002040420f00cd
:0420fc008c02002032
:020000040000fa
:102100008023db0500221a819a7901210a439a7102
:102110009b7803221340022b08d08023db05013a71
:0e2120009a701900013a8b791342fcd0704777
:020000040000fa
:02212e007047f8
:020000040000fa
:10213000084b01221a8019000b691a42fcd1054b89
:10214000054a1a80012252421a620232ff325a8133
:0c2150007047c046002000400080ffffe8
:020000040000fa
:10215c00084b802292025a601a00d369002bfcd1e2
:10216c00044b01221a73044a1a601a00d369002b1b
:0c217c00fcd17047001000420e00010072
:020000040000fa
:10218800084a537980210b435371110004220b69cb
:102198001a42fcd103491f224b799343fcd1014bce
:0821a800586970470020004255
:020000040000fa
:1021b00030b543001b189b00064ce3181b7a834282
:1021c00000d030bd43001d18ad0029516019426098
:0821d000f7e7c0469001002072
:020000040000fa
:1021d80010b5fff7a1fd054b186800f087f800213e
:1021e800034800f0cbf800f035f810bd9802002045
:0421f800b91a000010
:020000040000fa
:1021fc0010b5064b1b68002b07d001200021404274
:10220c00fff7fafc014b1b68984710bd84020020b5
:020000040000fa
:10221c0010b5064b1b68002b07d001200021404253
:10222c00fff7eafc014b1b68984710bd80020020a9
:020000040000fa
:10223c0010b5064b1b68002b07d001200021404233
:10224c00fff7dafc014b1b68984710bd74020020a5
:020000040000fa
:10225c00054a136802210b431360110002220b691b
:0c226c001a42fcd17047c046002000421e
:020000040000fa
:10227800044b00221a609a60034a5a6004221a60ca
:0c2288007047c04610e000e063bb00009f
:020000040000fa
:1022940010b5040000f05ef8034b18882043188042
:0c22a40000f030f810bdc046a802002079
:020000040000fa
:1022b000044bd861190040220b691a42fcd101205d
:0822c0007047c04600200042f7
:020000040000fa
:1022c80010b5002903d1fff7a5fe203002e0081c55
:0822d800fff7a0fe10bdc04697
:020000040000fa
:1022e000002803d0bff35f8f62b6704772b6bff3aa
:0422f0005f8ffae71b
:020000040000fa
:1022f400034b5861190010220b691a42fcd1704734
:042304000020004273
:020000040000fa
:1023080010b5034c207800f058f80023237010bd56
:04231800aa020020f5
:020000040000fa
:10231c00034908220b691a42fcd1014b986970479a
:04232c00002000404d
:020000040000fa
:10233000034b00229a601a6801210a431a60704711
:0423400010e000e0c9
:020000040000fa
:10234400eff3108072b6bff35f8f43425841c0b2bf
:022354007047d0
:020000040000fa
:02235600fee7a0
:020000040000fa
:1023580010b500f02ef8014b187010bdaa0200202d
:020000040000fa
:1023680001238340014a13617047c046002400409e
:020000040000fa
:0c237800014b04225a60704700400041f5
:020000040000fa
:0c238400014b1860596070476c0200208b
:020000040000fa
:0c23900010b58020400000f001f810bde6
:020000040000fa
:0c239c0080b2014b188170470020004007
:020000040000fa
:0a23a80010b50020fff7e2fcfee78d
:020000040000fa
:0823b20010b5fff7b2ff10bdea
:020000040000fa
:0823ba0010b5fff7c2ff10bdd2
:020000040000fa
:0823c20010b5fff78cff10bd00
:020000040000fa
:0623ca00b72080047047fb
:020000040000fa
:0423d0007047c0464c
:020000040000fa
:0223d400fee722
:020000040000fa
:0223d600fee720
:020000040000fa
:0223d80070474c
:020000040000fa
:0223da0070474a
:020000040000fa
:0200000400807a
:04400000770600b08f
:020000040000fa
:0200000400807a
:04400400bb00ffffff
:00000001FF
