:020000040000fa
:10000000f07f0020b93300005f3c0000133d00008a
:1000100000000000000000000000000000000000e0
:100020000000000000000000000000006f3d000024
:1000300000000000000000006f3d00006f3d000068
:100040006f3d00006f3d00006f3d00006f3d000000
:100050006f3d00006f3d00006f3d00006f3d0000f0
:100060006f3d00006f3d00006f3d00006f3d0000e0
:100070006f3d00006f3d00006f3d00006f3d0000d0
:100080006f3d0000000000006f3d00006f3d00006c
:100090006f3d00006f3d00006f3d00006f3d0000b0
:1000a000000000006f3d00006f3d00006f3d00004c
:020000040000fa
:1000b000f8b5c046f8bc08bc9e46704751330000f6
:1000c000f8b5c046f8bc08bc9e467047293300000e
:020000040000fa
:0800d0000c1e000001000000fd
:020000040000fa
:1000d800f0b5574645464e46de46e0b50f037f0a63
:1000e800450f3d43ac465d004e00cc0f690d8a4676
:1000f8001f03ca49550f83b0c0007f0ad200760d8e
:100108008046db0f2f4301928a4500d1c0e0554657
:10011800751ba9460125ab465d466b409b469c4234
:1001280000d190e04d46002d00dcbbe05346002b8b
:1001380000d1d4e08e4200d19fe280231b041f43ec
:100148004b46382b00dd64e11f2b00dd16e24946e3
:1001580020233d005b1a11009a409d40531e9a418e
:100168004b46a8464d46df406346e9404546db1b03
:100178009c460d431543451ba842804163464142b6
:10018800591a0b0200d41ce149024b0a984643460f
:10019800002b00d130e1404603f0b4fa0300083bdd
:1001a800202229004746d21a9f40d1409d400f4344
:1001b8009e4200dd1ce19e1b731c1f2b00ddb2e17b
:1001c80020222800d21a390095409140d8406a1e52
:1001d800954101430d4339000026d9406b0709d0ea
:1001e8000f232b40042b05d02b1dab42ad416d4294
:1001f80049191d000b0200d4e6e0721c874b560516
:10020800760d9a4200d1eee0854fed080f40780751
:10021800284382467a02120b00211203130b0a0d9f
:1002280012051a437f4b3605134033435b00e4073e
:100238005b0823435046190003b03cbc90469946de
:10024800a246ab46f0bd4d46002d5bdd5346002b64
:1002580000d19ae08e4200d109e180231b041f439c
:100268004b46382b00dd6ee11f2b00dca5e1390081
:10027800203bd9404b46202b05d040234d465b1be5
:100288009f403a430192019d6f1ebd410d435ee1bf
:1002980065493d0089461543b144002d2dd09b4644
:1002a8009c422fd0494600294ad1604d711c2942f1
:1002b80000d0bde03d00614615430143aa46002e2b
:1002c80000d0f8e1002900d1bee1002d00d0fde109
:1002d8006346c0085a0702439246d9087de03b00ae
:1002e800134300d1bbe04b46013b002b00d1bbe1df
:1002f800894500d1bbe0994622e701256b409b4622
:100308009c42cfd14946002900d0b8e0711c8a46ea
:10031800554646490d4245d161460143002e00d05d
:1003280070e1002900d10de23b00134300d00fe239
:100338006346c0085b07184363468246d9084ce009
:100348005146891b89465c46002e00d0c4e06346ae
:10035800034300d150e10b00013b002b00d1e8e141
:100368002e4d9946a94200d0bfe0d2087b071a4318
:100378009246f90853460b4300d13be28022120310
:100388000a431203120b254e46e73b00134300d1e4
:100398007ae14b46013b002b00d121e1894566d02b
:1003a80099465de71d4b9a4500d1dee182188242ed
:1003b80089415646674449427918cd075208154382
:1003c80049086b0700d00be74b07ed081d43aa4609
:1003d800b146c908114b9945ccd04b460a035e0576
:1003e800120b760d18e71600002300229a4613e731
:1003f8000b49f61a3940f1e6280003f083f90300a7
:1004080018331f2b00dccbe6083885402f00002569
:10041800cee63a4315006a1e9541ace6ff07000098
:10042800ffff7fffffff0f8001f8fffffe070000bf
:100438006146851acb1ba842894149428846190062
:100448004346c91a0b0088461b0200d529e10b0058
:100458002b439a4600d09ae600210024bde7634664
:10046800c0085b07184363468246d908b2e763466b
:10047800c0085b07184363468246d9087ae75346a3
:100488009b1b9946002e00d189e0d84b9a4500d194
:10049800e4e0802361461b0419438c464b46382b05
:1004a80000dd25e11f2b00dd6ae1494620234e4689
:1004b8005b1a6546010098409d40f140431e9841f3
:1004c8000d4305436046f0403f18ad1895428941f9
:1004d8004942c91956463fe0c44b9a4500d1bde090
:1004e800802361461b0419438c464b46382b00dd9c
:1004f800d1e01f2b00dd01e1494620234e465b1a5f
:100508006546010098409d40f140431e98410d43c7
:1005180005436046f0403f1a551baa4289414942ab
:10052800791a56462de63a001f3ef2401600202b57
:1005380003d04022d31a9f403d436b1e9d410021aa
:10054800354300263de73a4315006a1e95412d18ac
:1005580085428041414261440b0200d431e7a34bfc
:1005680001369e4200d13fe70122a14f6b08394076
:1005780015401d43cb071d4349082fe63900203b92
:10058800d9404b46202b05d040234d465b1b9f404e
:100598003a430192019d6f1ebd410d43ebe5634651
:1005a800034329d04b46013b002b00d116e18f4d68
:1005b800a94500d1d9e6994670e7494620233d0070
:1005c8005b1a9d4011009a40a8464d46531e9a4119
:1005d8004b46e9404546df400d431543bc44b6e76a
:1005e80085188542894167444942791801260b02da
:1005f80000d4e6e60226b7e7d2087b071a439246fc
:10060800f908e7e6002929d063463e005d07c008df
:10061800d90816432843002e00d188e080252d03f1
:10062800294207d0fe082e4204d15c463100d20888
:1006380078071043ca00410f1143c0004a07c00899
:1006480010438246c90895e6002d00d104e77807d3
:10065800d20810438246f9085c46bee67807d208fd
:1006680010438246f90885e6851a6346a842804108
:10067800df1b4042391a012683e56346c0085a0742
:1006880002439246d90875e66346c0085a070243f2
:100698009246d9089ee6634603431d00681e8541bd
:1006a8003ae7151a6346aa429241ff1a5242bb1a08
:1006b80098465c466be5002932d1002d72d0790747
:1006c800d2080a439246f9085c4653e66346851aff
:1006d800d91ba8429b415b42c91a0b024ad5151a7d
:1006e8006346aa429241ff1a5242b91a5c4675e51e
:1006f800634603431d00681e8541e6e66646203bc7
:10070800de404b46202b06d0494640235b1a614603
:100718009940084380464546691e8d413543fbe6ae
:100728006346c0085e07d908002d3fd13043824692
:1007380020e6151a6346aa429241ff1a5242b91a94
:1007480001261ee5d2087b071a439246f90844e6bb
:100758008518854289416744494279180b0200d4bb
:100768002fe6234b012619402be60023564600228c
:100778009a4651e52b000b439a4600d16ce620e6d9
:100788006646203bde404b46202b06d04946402398
:100798005b1a61469940084380464546691e8d416b
:1007a800354392e6802100240903e7e506438020cb
:1007b8000003014208d0fd08054205d1d2087f0791
:1007c8003a4316005c462900ca00710f1143f6002f
:1007d8004a07f60832439246c908cbe58518954280
:1007e800924167445142791800e7c046ff0700006c
:1007f800ffff7fff0023024e9a461a000ce5c04611
:10080800ff070000f0b557464e464546de46e0b5c0
:100818000c030600480087b092469846240b400d0a
:10082800cf0f002800d178e07b4b984200d190e0b0
:10083800730fe4001c438023784a1b041c4394462e
:10084800030063440093002399469b46f500434602
:1008580042461e03d20f5b005046360b5b0d904696
:1008680000d180e06c4a93421dd06c49420f8c46ff
:1008780000996344f6008c46164380229c44120477
:1008880063461643c2000020009300994346013195
:100898008c4649467b4001930f2900d9c6e0604b3e
:1008a800890059588f465c4952468c46009b324312
:1008b80063440093002a00d08de04946022319437f
:1008c800894600260220e0e74346019334001500dc
:1008d80083465b46022b64d0032b00d1f1e1012b48
:1008e80000d05ee100220026002500213603340beb
:1008f8000e0d360526434b4c120534401443019b1c
:100908006400db0764081c432800210007b03cbcd6
:1009180090469946a246ab46f0bd2500354352d0d5
:10092800002c00d176e1200002f0ecfe02000b3a28
:100938001d2301009b1a3200350008398c40da402b
:100948008d401443384b1b1a0093002399469b464d
:100958007de7350025432fd108239946063b00241f
:1009680000909b4673e7524632431ed0002e00d1ba
:1009780042e1300002f0c6fe02000b3a1d230100de
:100988009b1a52460839da408e40164352468a402e
:10099800009b2549181a03008c46634400930020e5
:1009a80073e71d4a002600259fe74946012319439e
:1009b80089460026012068e70c239946093b350043
:1009c80000909b4643e70423994600230093013394
:1009d80000249b463be74a4603231a4391460320db
:1009e800524652e7019774e70023802601933603a5
:1009f8000025094a79e780231b031c4200d1f3e054
:100a08001e4200d0f0e01e43434636031500360b65
:100a18000193014a69e7c046ff07000001fcffff98
:100a280054360000ffff0f800dfcffff2f0c2d0434
:100a38002d0c2b00110c1204120c53439846130072
:100a480028007b43994648434844834640460b0068
:100a5800000c824658467b4350440293814506d990
:100a68009a4680235b029946ca4453460293030c74
:100a78009b4643461b0400041b0c98460300434452
:100a88000493330c99462b003604360c734398466e
:100a980033007b439a464b465d435f434346554488
:100aa800180c4019824503d980235b029a465744a3
:100ab800050ceb19059343461d042d0c0004401941
:100ac800250c2404240c270057436a4390462a0027
:100ad8003b0c9a464a436143414451448344884508
:100ae80003d980235b02984642443f040b0c3f0c19
:100af8000904c919270098464b4677435c436e435f
:100b08005d433b0c9946a4194c4442440395a642c4
:100b180004d980235b02984645440395029b3f0411
:100b28005b441e008342804123049846059b3f0c8a
:100b38004744984676188e428941474440423d18ba
:100b4800a846494293468a46c344da449f42bf4175
:100b580080458041039b934592418a458941984647
:100b6800534640427f420743240c524249420a43bb
:100b78003c19a418da0d049b75021d43681e8541b3
:100b8800534644446402f60d144335435a02154350
:100b9800e30173d501216a080d401543e2071543a7
:100ba80064084b4a6244002a43dd6b0709d00f21d1
:100bb8002940042905d0291da942ad416d42641977
:100bc8000d00e30104d5434a14408022d200624458
:100bd80041498a4200dde4e66107ed0864025205f6
:100be8000d43260b520d80e6802636032643360336
:100bf800360b0197394a78e602f084fd03001a00a3
:100c0800153220301c2a00dcb8e65646083b002284
:100c18009e40bde6300002f075fd03001a00153253
:100c280020301c2a00dc83e63400083b00259c4069
:100c380088e60121891a382900dd53e61f2920dcbe
:100c48002748220060442e0085408240ce40681e1e
:100c5800854132432a43cc40530709d00f21114024
:100c6800042905d0111d914292415242a4180a004c
:100c780023021fd501220026002536e6009b9c464c
:100c88008fe71f204042821a2000d040202903d03d
:100c9800144a6244944025436a1e95412a00072558
:100ca800024315400026002d07d00f2100241140d3
:100cb8000429d7d165076402260bd2081543002200
:100cc80013e68026360326433603360b034a0ce622
:100cd800ff030000fffffffefe070000ff07000004
:080ce8001e0400003e040000a0
:020000040000fa
:100cf000f8b50600d24c3423e15c0022002001f05c
:100d0000e3fc206802f0c2fb2223e5560233e35cd9
:100d1000002b24d12c1c0f2d00dd0f2463b20333d4
:100d200001dafd231c1c67b24d2002f0a5fef8215c
:100d30000140042001434d2002f028fe002d06db77
:100d400070213943c9b2092002f020fe3de003348e
:100d5000e1b220242143092002f018fe35e0012de4
:100d600010dd132d0fdd0b2002f086fe04004d2058
:100d700002f082fef821014007200143df231c40de
:100d80000f2514e002250b2002f076fe04004d2012
:100d900002f072fef8210140042001432b1c112daa
:100da00000dd1123023b5db220231c43e4b24d2041
:100db00002f0ecfd802149422943c9b2092002f02a
:100dc000e5fd21000b2002f0e1fd9d4a3423d35cb8
:100dd000012b00d172e09a4c63681802994901f026
:100de00095fa0500010ac9b2042002f0cffde9b26c
:100df000052002f0cbfda168934801f087fa0500b9
:100e0000010ac9b2022002f0c1fde9b2032002f0da
:100e1000bdfd00215d2002f0b9fda18a090a25204f
:100e200002f0b4fd217d262002f0b0fd9e210d20b0
:100e300002f0acfd0a2002f01ffe3723e15c4901fd
:100e4000293398430143c9b20a2002f09ffd2323ae
:100e5000e15c4b42594149420f239943d031302044
:100e600002f094fd4021312002f090fd744a2123cc
:100e7000d35c002b00d140e10024150021262b1962
:100e8000597e20002830c0b202f080fd0134e4b267
:100e9000a95da142f3d8002900d12ee10139102328
:100ea0001943c9b2272002f071fdff213e2002f054
:100eb0006dfdff213f2002f069fdf8bd1400117e99
:100ec000392002f063fd3623e15c0901033be35c5a
:100ed0005b0019432623e25c253b13401943c9b24a
:100ee0001d2002f053fd2323e35c9b0004211940e5
:100ef0003523e35c1b011943b3059b0f1943c9b2aa
:100f00001e2002f043fde28a0021002a0dd04c4948
:100f10003623cb5c082b6cd0092b6dd00021072b1e
:100f200062d0474a3523d35cd940c9b2242002f0ad
:100f30002dfdf1b21f2002f029fd262002f09cfdbc
:100f40003f4a3523d35c0c2b5cd03d4b5b6b3f4a57
:100f500013403f4a93425ad0f721014004200143f5
:100f6000262002f013fd312002f086fdf821014019
:100f700003200143312002f009fd0a21372002f04d
:100f800005fd2f4a3123d35c122b44d0332002f0cd
:100f900073fd2b4c2523e35c9b014021194040232a
:100fa00098430143c9b2332002f0f0fca18a090a38
:100fb000202002f0ebfc217d212002f0e7fc002143
:100fc0000d2002f0e3fc00210e2002f0dffc0021e6
:100fd0000f2002f0dbfc3123e35c122b4bd0ff210e
:100fe000122002f0d3fc68e75101891a89008918a0
:100ff00097e7fa21514394e75101891a890089182a
:1010000089008ee72a33d35c073b012b9dd808214a
:101010000143c9b2a2e72433d35c073b012b19d9a2
:10102000074a3623d35c092bb0d1312002f024fdce
:1010300080235b420343d9b2312002f0a7fca5e72d
:1010400060030020093d00000048e80100ffff00a8
:10105000000b0700312002f00ffd7f2101403120fd
:1010600002f094fc40212f2002f090fc002130205f
:1010700002f08cfcd4e7234a2433d35c092b15d02f
:101080000321362002f082fc1e4a3623d35c092b52
:1010900003d11c33d35c012b26d065213a2002f00a
:1010a00075fc1d213b2002f071fc98e71368164a7d
:1010b0009918164a914208d80221362002f066fc9f
:1010c00064213a2002f062fcdee7114a9446634450
:1010d000104a9342d4d80221362002f057fc7f21d7
:1010e0003a2002f053fccfe765213a2002f04efc93
:1010f00019213b2002f04afc71e70021272002f071
:1011000045fcd2e66003002080ec9ecc80e36a09b7
:0811100080e58fe7c0c2da069a
:020000040000fa
:1011180030b585b0a44b1b889b0642d4a24b1b88d4
:101128005b0667d4a04b1b881b0663d49e4b1b88a9
:101138009b0700d589e09c4b1b881b0700d506e15f
:10114800994b1b88db0575d5974a138897490b403f
:101158001380974c2c25625dd2b2a16a002002f060
:1011680095fa3423e15c0022002001f0a9fa02f08c
:1011780043fd01aba26a0292625d1a7200225821f5
:1011880062541a708b4b01321a708b4b1b78db063a
:1011980050d5874b1b69002b4cd001a910209847cc
:1011a80048e0814a138820218b431380804c3425e2
:1011b800615d0122012001f083fa615d00220020b7
:1011c80001f07efa02f018fd7a4b01221a70002312
:1011d80001aa13702c22a3542c32a354764b1b78eb
:1011e8001b0727d5724b1b69002b23d001a90820a8
:1011f80098471fe06c4b1a8840218a431a801a8846
:1012080040318a431a806a4c3423e15c0022002072
:1012180001f056fa02f0f0fc664b01221a70002326
:1012280001aa13702c22a3542c32a354624b1b78ae
:101238001b0702d4002005b030bd5d4b1b69002b95
:10124800f8d001a908209847f4e7574a13880221e3
:101258008b431380132002f00bfc554c2c25605552
:1012680000210d2002f08efb625dd2b2a16a00203f
:1012780002f00cfa192002f0fbfb40b283100028a0
:1012880036db4b4d32242b551a2002f0f1fb03b20a
:101298002a57002a31db464a1268484954184849f7
:1012a8008c4247d81b119d381b18414956228b5236
:1012b8003f4c3423e15c0022002001f001fa02f0e7
:1012c8009bfc01aba26a02922c22a25c1a72002239
:1012d8001a70384b01321a70374b1b78db07a9d5c7
:1012e800334b1b69002ba5d001a901209847a1e722
:1012f80040428010404243b2c3e72d4909682f4c51
:101308000d192f4ca54207d89d3a12181b11d21857
:1013180027495623ca52cbe72a4ca44661442a4c93
:10132800a142c5d8a43a11181b11cb18204956223e
:101338008b52bde723498c46624423498a42b7d879
:101348001b11a4381b181a4956228b52b0e7164aab
:10135800138808218b431380154c32238022e254d2
:101368000233e15c0022002001f0aaf902f044fcfb
:1013780001aba26a02922c22a25c1a7200225821a6
:1013880062541a700b4b01321a700b4b1b78db0737
:1013980000d44fe7064b1b69002b00d14ae701a98f
:1013a8000120984746e7c04624040020fffeffffbf
:1013b800600300202f0400202804002080ec9ecc2d
:0c13c80080e36a0980e58fe7c0c2da0606
:020000040000fa
:1013d400f0b54f464646d64644024500c0b5884659
:1013e400640a2d0ec70f002d49d0ff2d4fd0802346
:1013f400e400db041c43002399469a467f3d4346a0
:1014040042465e02d20f5b00760a1b0e904646d01f
:10141400ff2b12d080220020f600d2047f3b16431b
:10142400ed186a1c434694464a467b400f2a00d96d
:1014340074e0704992008a589746ff35002e54d1c3
:101444004a4602231a4391460220eae743463400ff
:1014540082465246022a2ad0032a00d1c3e0012a36
:1014640000d082e0002200246402d205600adb0777
:10147400104318431cbc90469946a246f0bd002c6c
:1014840027d104239946033b00259a46b7e7002c4d
:1014940019d108239946063bff259a46afe7002e4b
:1014a40008d14a4601231a4391460120b9e7ff2295
:1014b4000024d9e7300002f027f9431f2d1a9e407b
:1014c400763d0020ade70c239946093bff259a465b
:1014d40095e7200002f018f97625431f9c4000236d
:1014e4006d422d1a99469a4689e74a4603231a43c0
:1014f4009146032095e73b00abe780240023e403f7
:10150400ff22b1e78023db031c4245d01e4243d1b6
:1015140033435c02640a4346ff22a5e7200c2404fb
:10152400210c0f00320c3604360c774351434643ea
:10153400504389193a0c5218964203d98021490222
:10154400884640443f0411043f0cc9198c01661eaf
:10155400b441890e2143140c2418a4010c43220124
:101564003cd50122610814400c4360467f300028ba
:101574001add620704d00f222240042a00d004346a
:10158400220103d560461c4a80301440fe288edcbc
:10159400a401640ac2b267e78020c0030443640262
:1015a400640a3b00ff225fe70122101a1b2800ddba
:1015b40058e762469e3221009440c140621e944125
:1015c4000c43620704d00f222240042a00d00434c2
:1015d400620105d4a401640a002245e7ac46c4e7cd
:1015e4000122002440e78022d20314436402640ae7
:0c15f400ff2239e714360000fffffff76c
:020000040000fa
:10160000f0b587b002f080f96c4c2d23e05c02f05d
:1016100087fa4123e35c002b35d0684ca38f14225a
:1016200053434025635502f06ff9002002f0c4f8df
:10163000206801f02bff4c230022e25201320021ee
:10164000002001f041f80921122002f09ff9012247
:101650000021052001f038f8635d002b13d0002431
:10166000574d564f3e00280002f0eefa3e23fa5e38
:1016700000216b5e9a4200da86e00134e4b2402336
:10168000f35ca342efd8012002f096f80420fff7a4
:101690002ffb4a4a3423d35c012b36d0474a5823c8
:1016a0000021d154474c01222100002001f032ffdb
:1016b0002278202a4ed9444b19682022002001f0bc
:1016c00029ff3e4958228b5c2033dbb28b54142116
:1016d000402002f05bf9412002f0cef93e210140aa
:1016e000412002f053f9354c3423e15c0022032001
:1016f00000f0eaff02f034fa344b18605960e268f7
:10170000002a32d1002007b0f0bd2e4c21782220d3
:1017100002f03cf90a2002f0aff9f0210140082064
:1017200001430a2002f032f94021402002f02ef954
:101730000021412002f02af9204a3423d15c012201
:10174000012000f0c1ff22781f4b1968002001f032
:10175000e1fec8e71c4b1968002001f0dbfe194bc5
:101760001978164a5823d154b1e75101891a8900d2
:101770008918c900114a2f23d05c00230093144b11
:10178000002201f0d1f8bde7002002f02ff802f0ae
:1017900037fa03ab07221a700e4b063a1a700e4b3b
:1017a0001b789b0700d46ee7044b1b69002b00d10c
:1017b00069e703a902209847a4e7c0466003002018
:1017c0002c0400203004002018040020e003002036
:0c17d000dd3200002f040020280400205f
:020000040000fa
:1017dc0003460b437fd4002243088b4274d3030986
:1017ec008b425fd3030a8b4244d3030b8b4228d327
:1017fc00030c8b420dd3ff22090212ba030c8b424d
:10180c0002d31212090265d0030b8b4219d300e0ec
:10181c00090ac30b8b4201d3cb03c01a5241830b71
:10182c008b4201d38b03c01a5241430b8b4201d321
:10183c004b03c01a5241030b8b4201d30b03c01a4a
:10184c005241c30a8b4201d3cb02c01a5241830ac4
:10185c008b4201d38b02c01a5241430a8b4201d3f3
:10186c004b02c01a5241030a8b4201d30b02c01a1d
:10187c005241cdd2c3098b4201d3cb01c01a524184
:10188c0083098b4201d38b01c01a524143098b420d
:10189c0001d34b01c01a524103098b4201d30b01f6
:1018ac00c01a5241c3088b4201d3cb00c01a52411b
:1018bc0083088b4201d38b00c01a524143088b42e0
:1018cc0001d34b00c01a5241411a00d20146524179
:1018dc00104670475de0ca0f00d04942031000d398
:1018ec004042534000229c4603098b422dd3030aed
:1018fc008b4212d3fc22890112ba030a8b420cd3fd
:10190c00890192118b4208d3890192118b4204d325
:10191c0089013ad0921100e08909c3098b4201d3a5
:10192c00cb01c01a524183098b4201d38b01c01adf
:10193c00524143098b4201d34b01c01a5241030956
:10194c008b4201d30b01c01a5241c3088b4201d305
:10195c00cb00c01a524183088b4201d38b00c01ab2
:10196c005241d9d243088b4201d34b00c01a524189
:10197c00411a00d20146634652415b10104601d316
:10198c004042002b00d54942704763465b1000d3a0
:10199c00404201b5002002f033fa02bd0029f8d014
:0419ac0016e7704783
:020000040000fa
:1019b000f0b5de4657464e464546e0b583b0804614
:1019c0009246002939d0002837d0674a526807204c
:1019d0001040019045d15246002a00d1a5e062484e
:1019e000007e420705d560480425826a027e2a42ad
:1019f000fbd15d48448b04252c434483047e802521
:101a00002c430476002291468b4201d95a1a914602
:101a1000019a002a04d05b0849084a4652089146b8
:101a2000514d01242a7e2242fcd0002000274e4c3a
:101a30000426012500908b462fe00020002b69d062
:101a40005246002a6dd0484a526807301040019033
:101a500000d17de0002900d080e0da0705d5002024
:101a600058e0ca075fd4002bf7d14046441ea0417e
:101a700040420140afe77a004046125ad205d20deb
:101a8000a262013712e0394aa26238e00098594652
:101a9000227e2a42fcd000908b465f4527d0019ad7
:101aa000002ae8d14246d25da2620137002bedd078
:101ab00000985946227e3242fcd000908b46a26aa2
:101ac00001009842e9d20198002804d150464254be
:101ad00001310091e1e7009948008446d205d20d1a
:101ae000504661460a52009901310091d5e74a46b5
:101af000002a09d0019a002ac5d1ff32a262012230
:101b000052429446e144d1e7174902320b7e134218
:101b1000fcd0012003b03cbc90469946a246ab469f
:101b2000f0bd0020f6e70020f4e70f4b187e0023fd
:101b3000420700d557e70c4b588b042420435883a9
:101b4000187e8024204318760023002291465fe708
:101b50004246002a00d03ee7019940e7ca0700d478
:101b60007be70020d6e7c04600100042ff010000de
:020000040000fa
:101b700070b50120624b1870624b634a1a60634a69
:101b80005a60634a9a6034215854072436229c5480
:101b9000143a985411329854002226255a551e3d65
:101ba0009d822d355c551c34185501341a5501346d
:101bb0001a559c345c765f359d76dc76a03c913d71
:101bc0001d5519760021da8211347d351d55514c91
:101bd000dc60372418550134753d1d550134073537
:101be0001d550d3c19554c4c9c624c241a53023423
:101bf00019555a64013419559a640f3c19559a873e
:101c0000da8741329954133299540132985403328d
:101c10009954283a9b5c002b1bd1404801f0defe12
:101c2000082802d001f0defa24e03d4801f0d6fe9b
:101c30000828f7d13b4801f0d1fe0828f2d13a48f4
:101c400001f0ccfe0828edd12e4a30230121d154d9
:101c500010e02c4c2d23e05c01f062ff2e23e05cb1
:101c600001f05eff2f23e05c01f05aff5023e05c9f
:101c700001f056ff01f01cfe02f0c3f8002836d038
:101c800001f042fe01220021012000f01dfd1d4b4c
:101c9000186801f0fbfb42213b2001f077fe202475
:101ca0003b2001f0e9fe0442fad123210c2001f08f
:101cb0006dfeaa211f2001f069feff21322001f0f4
:101cc00065fe4021312001f061fe0122012100204a
:101cd00000f0fafcff21232001f058fe422001f021
:101ce000cbfe084a3123d05401f08aff70bd054c69
:101cf00055230022e25402f082f85423e054bfe757
:101d00002f04002060030020a027be33a86100003c
:101d100050c30000983a0000a00100208d0300206d
:0c1d20008e0300208f030020b003002081
:020000040000fa
:101d2c00bc0300201c00000000000000f003002099
:101d3c000400000000000000f40300200400000078
:101d4c0000000000f8030020040000000000000068
:101d5c009f0200200100000000000000fc03002096
:101d6c00040000000100000080bb00000004002003
:101d7c0004000000010000003000000021040020dd
:101d8c00010000000000000004040020040000001a
:101d9c0000000000290400200100000000000000e9
:101dac002e040020010000000000000008040020a8
:101dbc0004000000000000000c04002004000000df
:101dcc0000000000100400200400000000000000cf
:101ddc00000000209001000000000000d80300204b
:101dec0008000000000000001404002004000000a3
:101dfc00000000002604002002000000000000008b
:101e0c00600300205c000000000000002a04002099
:101e1c0002000000000000002c0400200200000062
:101e2c0000000000900100200f01000000000000e5
:101e3c002804002001000000000000002404002001
:101e4c0002000000000000002f0400200100000030
:101e5c00000000002204002002000000000000002e
:101e6c00e00300200800000000000000180400201f
:101e7c0004000000000000003004002001000000fd
:101e8c0000000000a0020020c000000000000000c4
:101e9c00e8030020080000000000000020040020df
:101eac0001000000000000003104002001000000cf
:101ebc00000000001c0400200400000000000000d2
:101ecc0000000000000000002222222222222222f6
:020000040000fa
:101edc00f0b557464e464546de46e0b5040083b0a5
:101eec000d00924699468b4230d82dd0494650462b
:101efc0001f098fe29000600200001f093fe331a31
:101f0c009846203b9b4633d45a4653469340424610
:101f1c001f00534693401e00af423ad8af4200d147
:101f2c007be05b46a41bbd41002b00da78e000226d
:101f3c0000230092019301235a46934001930123fd
:101f4c0042469340009328e08242cfd900220023de
:101f5c00009201930c9b002b01d01c605d600098db
:101f6c00019903b03cbc90469946a246ab46f0bde5
:101f7c00424620239b1a5246da40414613004a46f9
:101f8c008a40170042461f43534693401e00af42ff
:101f9c00c4d900220023009201934346002bd9d0d0
:101fac00fb079c46614672080a437b0846460ee0d6
:101fbc00ab4201d1a2420cd8a41a9d410120241994
:101fcc006d410021013e24184d41002e06d0ab423c
:101fdc00eed9013e24196d41002ef8d100980199db
:101fec005b4600196941002b25db2b005a46444601
:101ffc00d3402a00e2401c005b461500002b2bdb73
:10200c0026005f46be40330026004746be403200e5
:10201c00801a9941009001919ce7a342b9d880e7be
:10202c004246202300219b1a00220091019201229a
:10203c00da40019283e7424620239b1a2a00464647
:10204c009a402300f340444613432a00e2401c000c
:10205c005b461500002bd3da2023424626009b1a40
:10206c00de402f00b4464646b74066463b0033433d
:04207c00cae7c046a9
:020000040000fa
:102080004e4b4e225a6119004d3acb681a42fcd091
:102090004a4b00229a6101321a61494b5a71073248
:1020a0009a71484b484a5a62190008224b681a42f2
:1020b000fcd1464b00221a8319000132ff32cb6853
:1020c0001342fcd0424b1b689b0e9b028022920065
:1020d00013433e4ad3613b4a80234121d150100033
:1020e0003f31402243581a42fcd0384980225200e6
:1020f000cb681342fcd0354b364a1a621900802255
:102100005200cb681342fcd0304b334a1a8319007b
:102110008022d200cb681342fcd02a4b2f4a1a628d
:10212000190004224b681a42fcd1264b2c4a9a62b1
:10213000190010224b681a42fcd1224a8c234021fc
:10214000d15010004c31402243581a42fcd01d4a55
:10215000c8234021d15010008831402243581a42f0
:10216000fcd0184acc234021d15010008c314022a1
:1021700043581a42fcd0134ad8234021d1501000b2
:102180009831402243581a42fcd00e4aec23422197
:10219000d1501000aa31402243581a42fcd0094abb
:1021a000f8234221d1501000b631402243581a4240
:1021b000fcd0064b00221a757047c0460010004044
:1021c000000400400018004005010100000c004020
:1021d00020608000b8053f1c0608000007010100d0
:0421e00007013000c3
:020000040000fa
:1021e40010b582b0002001f0e5fa434b18880028ae
:1021f40055d10430fef77afd404a3423d35c012bd9
:1022040050d0bf21352001f0bffb3c4c3823e15caa
:10221400122001f0b9fb3923e15c132001f0b4fb77
:102224000d21402001f0b0fb412001f023fc3f21af
:1022340049420143c9b2412001f0a6fb00235622c2
:102244000021a1522a3aa3542c32a3542a4b1b88ae
:10225400002b34d0294a3423d35c012b37d00022fd
:102264000021052000f02efa234b1a885101891a07
:1022740089008918c900214a2e23d05c00230093c9
:102284001f4b002200f04efb1c4bd968002903d0e1
:10229400194b1b88002b20d1002002b010bdfef783
:1022a40025fda9e70121222001f06efb0021402039
:1022b40001f06afb0021412001f066fbc6e70f4aea
:1022c4003433d15c0022052000f0fcf9dce7002265
:1022d4000121062000f0f6f9d6e74b015b1a9b00ba
:1022e4005918c900054a2f23d05c00230093054bdd
:1022f400002200f017fbcfe7220400206003002037
:08230400dd380000dd320000ad
:020000040000fa
:10230c00002243088b4274d303098b425fd3030a28
:10231c008b4244d3030b8b4228d3030c8b420dd33b
:10232c00ff22090212ba030c8b4202d312120902c9
:10233c0065d0030b8b4219d300e0090ac30b8b4207
:10234c0001d3cb03c01a5241830b8b4201d38b03b5
:10235c00c01a5241430b8b4201d34b03c01a52415a
:10236c00030b8b4201d30b03c01a5241c30a8b429d
:10237c0001d3cb02c01a5241830a8b4201d38b0288
:10238c00c01a5241430a8b4201d34b02c01a52412c
:10239c00030a8b4201d30b02c01a5241cdd2c3099e
:1023ac008b4201d3cb01c01a524183098b4201d31a
:1023bc008b01c01a524143098b4201d34b01c01a05
:1023cc00524103098b4201d30b01c01a5241c3087d
:1023dc008b4201d3cb00c01a524183088b4201d3ec
:1023ec008b00c01a524143088b4201d34b00c01ad8
:1023fc005241411a00d20146524110467047ffe744
:10240c0001b5002001f0fcfc02bdc0460029f7d04c
:04241c0076e77047a8
:020000040000fa
:1024200070b584b0344b1b88db060ed4324b1b884e
:10243000db0736d4304b1b885b0732d42e4b1b880e
:102440009b0556d4002004b070bd2b4a1388102180
:102450008b431380294c3426a15d0122012000f01a
:1024600033f901abe268029200251d70a15d0022e4
:10247000002000f029f9224b01221a705823e5545c
:10248000204b1b785b0704d401f012fafff770fbb6
:10249000d8e71a4b1b69002bf6d001a904209847f6
:1024a000f2e7154b1a880126b2431a801a880421d4
:1024b0008a431a8001ab144a1268029200251d70eb
:1024c0000e4c3423e15c0022002000f0fdf801f006
:1024d00097fb0b4b1e705823e5540a4b1b789b0748
:1024e000b0d5064b1b69002bacd001a90220984740
:1024f000a8e700f0d9fca5e7240400206003002031
:0c2500002f04002028040020e00300202d
:020000040000fa
:10250c00f0b54e4645465746de461c03e0b5240b57
:10251c00324e0f034d00a1465c0084463f0b6d0dff
:10252c00c90f9046640ddb0fb5422ad0b44219d0c6
:10253c00002d2bd13843834646424641002c02d114
:10254c004846024328d0002e16d1994229d00223a6
:10255c0001390b40013b18003cbc90469946a24601
:10256c00ab46f0bd4e4632432fd1002dedd1384352
:10257c0046424641002ee8d0002becd101235b42b1
:10258c00e9e73e00064320d1ac42ebd0002cdcd175
:10259c0048460243d9d1dae75a460023002adad05a
:1025ac00d5e7a5420adce7db4f45d0d810d0002395
:1025bc004f45d0d20029e1d00b00cce75842434123
:1025cc00584202230340013bc5e702235b42c2e7aa
:1025dc00c445bcd80023c445bdd2ebe7ff070000bf
:1025ec00f0b54e4645465746de461c03e0b5240b77
:1025fc00314e0f034d00a1465c0084463f0b6d0d20
:10260c00c90f9046640ddb0fb54211d0b44214d003
:10261c00002d30d13843834646424641002c14d11c
:10262c004846024311d15a460023002a17d010e025
:10263c003e00064312d1ac421dd14e4632430dd161
:10264c00002d04d1384346424641002e0ed199420a
:10265c0017d0022301390b40013b00e00223180084
:10266c003cbc90469946a246ab46f0bd002bf6d139
:10267c0001235b42f3e7002ce9d148460243e6d143
:10268c00e7e7a54206dd5842434158420223034086
:10269c00013be4e7a542e9db4f45dad806d000233d
:1026ac004f45dcd20029e3d00b00d8e7c445d0d885
:0c26bc000023c445d3d2f5e7ff0700005f
:020000040000fa
:1026c800f0b5d6464f4680b583b00192002902d1b5
:1026d800831f012b2ad9072399461c000440012691
:1026e8000e40012001f0c4f90500070043b29a46e4
:1026f8004b4603405246d20f96420ad0002b1ad1bd
:10270800002e1ed178272f403900012001f03af918
:102718000023a3420ad0002c31d0019b012b16d0f4
:10272800f82139402143012001f02cf903b00cbcf9
:1027380091469a46f0bdf8210140012001f022f9a6
:10274800dee7782753461f4080210f43dce741200e
:1027580001f08ef9002e0fd130210143c9b241207a
:1027680001f010f9f82139402143012001f00af95c
:10277800012001f069f8d9e7cf210140efe7f821fe
:102788003940012001f0fef8019b012bced1012038
:0627980001f01dfbcae781
:020000040000fa
:02279e00704782
:020000040000fa
:1027a00070b52e4c03234a22a3540132a354802136
:1027b00060582b4a0243625010316058294a024344
:1027c0006250d022a3540132a3548023db0237325b
:1027d000a3501032a35088238022d205e2509825be
:1027e000625180263606e6506651d20be2506251a5
:1027f0007c331201e25080239b01a36063611b09bb
:10280000a360636100221849002001f0fbf800205a
:1028100001f090fa002215490b2001f0f3f80b208b
:1028200001f088fa002212490c2001f0ebf80c208c
:1028300001f080fa66510123a9225200a3545422c8
:10284000ff32a3543a22ff325521a1545b3aa354dc
:102850001f3aa35c05210b43a35470bd0028004020
:10286000008000c000800080013b0000e13a0000d1
:04287000c13a000069
:020000040000fa
:1028740030b585b0264b1a78042a0bd89300254a24
:10288400d3589f4680210904234801f0bafa204b0b
:1028940001221a7005b030bd802424041e4d22008c
:1028a4002100280001f06efafa20400000f0ceff6b
:1028b40000222100280001f065fa154b02221a704b
:1028c400e8e7134b03221a70e4e7144b1a680092ea
:1028d4001b796a46137102a80523037004ab436095
:1028e40000f044fd002806d10d4b01221a70084b5c
:1028f40004221a70cee7fa20800000f0a7fff6e762
:10290400fa20400000f0a2ff014b01221a70c1e737
:1029140020040020ec3c000080280040f03d000032
:04292400310400205a
:020000040000fa
:1029280070b504000e001d00ff283bd001011f4bad
:102938005b181b7b002b37d1012a2fd01c4a0a2099
:102948001c4bf318934230d8184b220199184d604c
:1029580004988860d650184b01225a72174b0022ef
:102968001a7000f0f3fd431c02d0864200d906001d
:1029780024010e4b1c190125257301f053f8861903
:102988000f4b1e60186801f043f90b4b10229a7226
:1029980001325a72094b1d70082006e001f042f816
:1029a800361acbe7152000e0152070bd0000002086
:1029b800efd8ff7ff0d8ffff002000422e04002050
:0429c80008040020df
:020000040000fa
:1029cc0070b541004602c40ffe20090e4b1c750a5f
:1029dc00184214d0e0239b006d07360bcb18002156
:1029ec000a0d280012051c4d32435b052a405b087a
:1029fc0013435b00e4075b082343190070bd0029f7
:102a0c0014d1002d1ed0280000f07afe0a281cdc00
:102a1c000b232a001b1ada40030015339d400f4b81
:102a2c0012031b1a5b05160b5b0dd8e7002d06d0a5
:102a3c00320b802636036d071643094bcfe7084b44
:102a4c000026cce700230026c9e703002a000b3b35
:102a5c009a400025e3e7c046ffff0f808903000082
:042a6c00ff07000060
:020000040000fa
:102a7000f0b583b004000d001c490a684b6800944f
:102a8000019512196b4116001f000e604f60184926
:102a90000b60184b1e60184d2e6000f019fd0021d0
:102aa000164801f083f9286801f016f9009800f043
:102ab00035fa431c09d1124b01225a72114b0022e4
:102ac0001a7001f077f803b0f0bd0d4b10229a7226
:102ad00001325a720b4b103a1a70074b1b681818c8
:102ae000094b1860186801f097f8eae7d80300204e
:102af00014040020100400200c040020352e0000d7
:0c2b0000002000422e04002008040020e9
:020000040000fa
:102b0c0010b5214a137801210b43137011000122d7
:102b1c004b681a42fcd11c490b781022102003433d
:102b2c000b701123cb61194b0b62194b0b61194bb9
:102b3c0000201872013018751f301a540c301a54ba
:102b4c000c301a540c301a540c301a540c301a54d1
:102b5c000c301a540c301a540c300a241c540c30ff
:102b6c0001341c540c3001341c540c301a540c30ed
:102b7c001a540c301a540b78022213430b70022295
:102b8c004b681a42fcd110bd002400400111010019
:082b9c00031c0000a002002050
:020000040000fa
:102ba400f0b5c6461f4a204b00b50021934203d21c
:102bb400197001339342fbd10b231c4a9c46083bfa
:102bc40098461368546819000026214311d0170051
:102bd40091680c3700290fd11a19002c03d01e70ec
:102be40001339342fbd13a0013685468190021431e
:102bf400edd104bc9046f0bd6146c91a1d195118a7
:102c0400002c05d05a1c505c187013009542f9d161
:102c1400434623405a1e9341a4081c19a4003f199b
:102c24003a00e1e700000020000000202c1d000015
:020000040000fa
:102c340010b584b01d4b4f22995c0131c9b299542f
:102c44000f3a9b5c8b4219d30e246c44200000f095
:102c5400f9ff164b0022a15e4f229a5c4a43596c3d
:102c64008c4662445a64996c5022985c0023009309
:102c74000f4b0022fff756fe04b010bd0d4a10881a
:102c840080239b0003431380084c636c58004b1e45
:102c9400594389b2fef7a0fd4c23e05200234f2292
:102ca400a3546364012000f049ffe5e760030020ba
:082cb400352c0000240400206f
:020000040000fa
:102cbc00f0b54e464546de4657461c03e0b5240ba0
:102ccc001a4e0f034d00a1465c00db0f84463f0bf0
:102cdc006d0dc90f9046640d9b46b5421ad0b44297
:102cec0010d00126a5420ed14f450cd10126c4456a
:102cfc0009d1594518d0002d05d138430600701e56
:102d0c00864100e0012630003cbc90469946a24624
:102d1c00ab46f0bd3b0001260343f4d1ac42f2d1eb
:102d2c004b461343efd1e1e70026ece7ff07000029
:102d3c0070b5041e0dd000f0e3fc9e22121a962ae8
:102d4c000edcd2b2082801dd083884406002400a4b
:102d5c0001e0002200204002d205400a104370bd61
:102d6c00992a09dd030021001b3399404b1e994120
:102d7c0005231b1adc400c43052801dd431f9c4036
:102d8c00230009490b40650709d00f252c40042c62
:102d9c0005d004335c0102d59f220b40121a9b0113
:102dac00580ad2b2d7e7c046fffffffb8446101c7f
:102dbc0062468c46191c634600e0c0461fb5fff7ff
:102dcc000ffc002801d40021c8421fbd10b5fff72d
:102ddc006fff4042013010bd10b5fff701fc002819
:102dec0001db002010bd012010bdc04610b5fff75f
:102dfc00f7fb002801dd002010bd012010bdc046ee
:102e0c0010b5fff77dfb002801dc002010bd012070
:102e1c0010bdc04610b5fff773fb002801da002087
:082e2c0010bd012010bdc046dd
:020000040000fa
:102e340010b5c30716d4c30618d5154b1b78002b41
:102e440014d0144b01225a72114b00221a7000f054
:102e54007ffb431c0bd10f4b01225a720c4b0022f7
:102e64001a7003e00c4a13680133136010bd0b4b56
:102e74001b68c0180a4b1860064a10219172013170
:102e84005172034a10391170186800f0c3feede75f
:102e94002e04002000200042140400200c04002012
:042ea40008040020fe
:020000040000fa
:102ea80000b585b0174a138817490b4013800022d4
:102eb80000210020fff704fc002000f093fc00f044
:102ec8009bfe124b4c229a5e3e215b5e9a4207dac9
:102ed800022000f049fffef78ffb002005b000bd7f
:102ee80001ab07221a70012000f03eff084b1b7847
:102ef8009b07f2d5054b1b69002beed001a90220d8
:102f08009847eae724040020fffdffff6003002044
:042f18002804002069
:020000040000fa
:102f1c00f8b5ce46474680b50600164c25009135cf
:102f2c00ff3501277f42144b98460023994607e052
:102f3c004b462360012000f01bfe1034ac4213d032
:102f4c00237b002bf9d02368b342f1d99b1b43455b
:102f5c0004d923609f42f0d91f00eee74b46236053
:102f6c00012000f005fee8e738000cbc90469946bd
:0c2f7c00f8bdc04600000020e703000084
:020000040000fa
:102f880030b5144d0a034b00120b5b0dc90f00241a
:102f9800ab4204dd104ca34203dd104bcc182000db
:102fa80030bd8024640322430d4ce41a1f2c08dd35
:102fb8000c48c31ada4013005c420029efd11c0008
:102fc800ede7094de040ac4663449a4013000343e3
:102fd800f2e7c046fe0300001d040000ffffff7f6c
:0c2fe8003304000013040000edfbffffa9
:020000040000fa
:102ff40070b5164b1b78012b00d070bd134b00220b
:103004001a7000f0e2fefff797fe1149fef7e0f9af
:1030140000f0defa04000d0000f0a1fe20002900fb
:10302400fff724fd0b4b1b68002be6d09e68002e97
:10303400e3d0fa22920000232000290000f0a8fa2d
:10304400b047044b00221a60d7e7c0462104002091
:08305400d723f441040400201d
:020000040000fa
:10305c0070b5174b1b889bb2002b0fd0144b1b88e1
:10306c00db070dd401221248012103889bb2140006
:10307c001341194205d10132052af6d1002070bd49
:10308c00002400f049fe0a4d2b880122a2409343f4
:10309c002b8000f0dffda400064be35898472b88eb
:1030ac009bb2002bead0022000f062fde6e7c0469e
:0830bc002a040020883c0000fa
:020000040000fa
:1030c400f8b5164b1b889bb21f2b03d8134f3e0039
:1030d4003c000ee0fee7002500f022fe23880122da
:1030e400aa409343238000f0b9fdad000c4beb588c
:1030f400984701213b889bb2002b0ed0074b1b88bd
:103104000b42e8d1012233889bb2150013411942c6
:10311400e2d10132052af6d1ece7f8bd26040020fd
:04312400743c0000f7
:020000040000fa
:1031280070b5041e10d000f0edfa134b1b1a5b05a6
:103138005d0d0a2818dc0b2322001b1ada40153013
:1031480012038440120b01e0002500220021120323
:10315800130b0a0d20001205084c1a4322402b05b8
:1031680013435b00590870bd22000b3882401203dc
:10317800120b0024eae7c0461e040000ffff0f8080
:020000040000fa
:1031880030b583b000f0bcfb002000f011fb104c00
:10319800206800f077f900254c23e5520122002130
:1031a8000020fff78dfa0921122000f0ebfb002226
:1031b80000210520fff784fa5023e05c0095054bb9
:1031c80000220549fff7acfb002003b030bdc04624
:0c31d80060030020352c000028230000bc
:020000040000fa
:1031e40000230d4a13700d4a13600d4a13600d4af3
:1031f40013600d4b19009131ff3100221a605a609f
:103204009a601a7310338b42f8d1084b01225a7218
:10321400074b00221a707047290400201404002070
:10322400100400200c0400200000002000200042b4
:043234002e04002044
:020000040000fa
:1032380010b5124b18691a6902218a431a611a6972
:103248000f4c22401a61014211d01a001b690b432e
:10325800136111000422cb681a42fcd0074b1b698a
:10326800db0504d405490122cb681a42fcd0034b84
:1032780022229a61203ada6110bdc046001400404b
:043288001e003f00e5
:020000040000fa
:10328c0010b5124b06225a6000f0f4fa00f01afa4c
:10329c00fef7f0fe00f06cfdfff77bfa00f076fc19
:1032ac0000f058fbfff7c2fffff72afc00f03cfbd5
:1032bc0000f008f900f0f5fa00f05efafff76afa90
:1032cc0000f0e6fbfef74efc10bdc046004000418e
:020000040000fa
:1032dc0010b5104b1b78042b04d00e4b1b78022b13
:1032ec000cd010bd0c4a138820210b4313800020f6
:1032fc0000f076fa022000f01dfcf2e7064a138873
:10330c0010210b431380012000f06afa012000f019
:0c331c0011fce6e72f0400202404002030
:020000040000fa
:1033280010b5064c2378002b07d1054b002b02d093
:10333800044800e000bf0123237010bdbc03002037
:103348000000000000000000044b10b5002b03d063
:103358000349044800e000bf10bdc046000000005b
:08336800c0030020000000007a
:020000040000fa
:1033700010b504000c4b1b780420012b00d010bdad
:103380000a4a2e33d05c00f0cbfb2278084b1a702f
:103390006268084b1a60044b02221a70042000f085
:1033a000cffb0020ebe7c0462f0400206003002085
:0833b000300400201804002085
:020000040000fa
:1033b80010b50a4b98470a4b9847fff7effb094ba4
:1033c800ff229343084a9360084b9847084b984755
:1033d800084b984700f0bafcfee7c046ef3d0000f6
:1033e800ef3d00000000000000ed00e001340000a7
:0833f800ef3d0000ef3d000075
:020000040000fa
:1034000070b500260c4d0d4c641ba410a64209d1ca
:103410000026fcf74dfe0a4d0a4c641ba410a64280
:1034200005d170bdb300eb5898470136eee7b30005
:10343000eb5898470136f2e7bc000000bc000000e2
:08344000bc000000c000000008
:020000040000fa
:10344800f8b500f0c8fc0e4c26009136ff36002770
:1034580004e000f0c0fc1034b4420ed0237b002bf3
:10346800f9d02368002bf6d1277300f0b8fc636805
:10347800002beed0a0689847ebe700f0b0fcf8bd51
:043488000000002020
:020000040000fa
:10348c0070b505000e49fef73bff04000c492800ff
:10349c00fef7bcff240208020949fef731ff0419ac
:1034ac00210cc9b2062000f06bfa210ac9b2072020
:1034bc0000f066fae1b2082000f062fa70bdc04676
:0434cc00093d0000b6
:020000040000fa
:1034d0000d4b01221a6019000b691a42fcd10a4bec
:1034e00018221a6000221a73022159710749d96102
:1034f00019623321997206490a6011325a721a0010
:103500001369002bfcd1704700200042ffff000030
:04351000e8030020ac
:020000040000fa
:1035140070b50d0016000d4a942380210906d15080
:10352400143b184300f094fa002e08d000242878a5
:1035340000f08efa0134e4b20135a642f7d1034a11
:10354400982380210906d15070bdc0460028004050
:020000040000fa
:1035540010b500f069fa0c4b18601a680b4b1b6825
:103564009a420bd2084b1868084b1b68c01a064bca
:103574001a68064b1a60fff7cffc10bd024b18689f
:10358400024b1b68c01af2e70c0400201004002050
:020000040000fa
:10359400002b11d1002a0fd1002900d1002802d01c
:1035a4000021c943081c07b4024802a14018029034
:1035b40003bdc0465508000003b4684601b502982f
:1035c400fef78afc019b9e4602b00cbc7047c046c5
:1035d40070b5fff7f9f900220b4b0d000400fdf75d
:1035e40013f900f0aff80600fff79cfd0022074b2b
:1035f400fdf70af902000b0020002900fcf76afd20
:1036040000f0a0f8310070bd0000f03d0000f04172
:020000040000fa
:103614002015000052140000521400005014000041
:103624005614000056140000fe140000501400004c
:1036340056140000fe14000056140000501400003c
:10364400fa140000fa140000fa140000081500002f
:10365400340a0000d4080000d4080000d008000098
:10366400da080000da080000f0090000d0080000c1
:10367400da080000f0090000da080000d0080000b1
:10368400ec090000ec090000ec090000fe09000050
:020000040000fa
:1036940070b50d0016000c4a942380210906d15000
:1036a40000f0d6f9002e09d00024ff2000f0d0f954
:1036b40028700134e4b20135a642f6d1024a9823b7
:0c36c40080210906d15070bd0028004094
:020000040000fa
:1036d0000d4bc02212031a601a61012244215a5470
:1036e00001315a540b315a5401315a5400220131dc
:1036f0005a5401315a5424315a543232443999546b
:0c3700000632113999547047002800402f
:020000040000fa
:10370c001c2101231b04984201d3000c10391b0a05
:10371c00984201d3000a08391b09984201d30009c9
:10372c00043902a2105c40187047c0460403020220
:10373c0001010101000000000000000070b5002232
:10374c000c4b04000d00fff765fb002804d1200092
:10375c002900fff713fc70bd064b00222000290046
:10376c00fcf7b4fcfff70afc80231b069c46604464
:08377c00f1e7c0460000e04146
:020000040000fa
:1037840010b500f037fb0400fa218900fef7bcfdf8
:10379400054b186005492000fef7b6fd044b186080
:1037a40000f08efa10bdc046fc03002040420f001a
:0437b40000040020ed
:020000040000fa
:1037b80010b50100084b1b68084a94466344084a40
:1037c8000020934205d8044a2423d35c581e834121
:1037d800581c00f0ebf810bd6003002080ec9ecc74
:0437e80080e36a0907
:020000040000fa
:1037ec0010b50100084b1b68084a94466344084a0c
:1037fc000020934205d8044a2423d35c581e8341ed
:10380c00581c00f0dff910bd6003002080ec9ecc4a
:04381c0080e36a09d2
:020000040000fa
:10382000f8b50400084d094f0026013c0ad328686a
:103830000028fad000f0b4fabe6000f083fa002845
:10384000fbd0f2e7f8bdc0460004002010e000e025
:020000040000fa
:10385000f8b50400084d094f0026013c0ad328683a
:103860000028fad000f09cfabe6000f06bfa002845
:10387000fbd0f2e7f8bdc046fc03002010e000e0fa
:020000040000fa
:103880008023db0500221a819a7901210a439a716b
:103890009b7803221340022b08d08023db05013ada
:0e38a0009a701900013a8b791342fcd07047e0
:020000040000fa
:0238ae00704761
:020000040000fa
:1038b00070b5094c80252d028823e5500c33e55066
:1038c0006420fff7adff8423e5500520fff7c0ff1c
:0c38d0009823e55070bdc0460028004061
:020000040000fa
:1038dc0010b5084a2f23d05c00f01cf90020fff72c
:1038ec007fff054a138880210b431380022000f0d0
:0c38fc0021f910bd60030020240400200e
:020000040000fa
:1039080010b5094a5523d35c002b00d010bd4b20bd
:1039180000f0aef810210143c9b24b2000f032f894
:0c39280000f05ef9f2e7c04660030020ea
:020000040000fa
:10393400084b01221a8019000b691a42fcd1054b6d
:10394400054a1a80012252421a620232ff325a8117
:0c3954007047c046002000400080ffffcc
:020000040000fa
:10396000084b802292025a601a00d369002bfcd1c6
:10397000044b01221a73044a1a601a00d369002bff
:0c398000fcd17047001000420e00010056
:020000040000fa
:10398c0070b50d00074c802636069423e650143b88
:10399c00184300f059f8280000f056f89823e65028
:0839ac0070bdc0460028004078
:020000040000fa
:1039b400012801d0002904d1064b802292019a618a
:1039c40070470228fcd10129fad1024b80229201ce
:0839d4005a61f5e700280040ec
:020000040000fa
:1039dc0070b5050000f0fdf9064b1b781424182b6c
:1039ec0004d82b700133034a13700c3c00f0f5f92a
:0839fc00200070bd2904002029
:020000040000fa
:103a040030b543001b189b00064ce3181b7a834215
:103a140000d030bd43001d18ad002951601942602b
:083a2400f7e7c046a0020020f4
:020000040000fa
:103a2c00084a537980210b435371110004220b690e
:103a3c001a42fcd103491f224b799343fcd1014b11
:083a4c00586970470020004298
:020000040000fa
:103a540010b584b003006a46d01d03700e246c4474
:103a640000232380013322000121fdf79fff2078ea
:043a740004b010bdcd
:020000040000fa
:103a780070b5074c80252d069423e550153b18405a
:103a8800fff7e4ffff20fff7e1ff9823e55070bd43
:043a980000280040c2
:020000040000fa
:103a9c0010b5fff7a1fb054b186800f017f90021d2
:103aac00034800f07df900f07ff810bd0c040020f5
:043abc00352e0000a3
:020000040000fa
:103ac00010b5064b1b68002b07d001200021404297
:103ad000fff790fa014b1b68984710bdf8030020d0
:020000040000fa
:103ae00010b5064b1b68002b07d001200021404277
:103af000fff780fa014b1b68984710bdf4030020c4
:020000040000fa
:103b000010b5064b1b68002b07d001200021404256
:103b1000fff770fa014b1b68984710bdf0030020b7
:020000040000fa
:103b200010b5040000f05bf92401044b1b190022be
:103b30001a7300f058f9082010bdc046000000209c
:020000040000fa
:103b400010b5040000f0eef8044b188820431880ec
:103b500000f086f8022000f011f810bd2a040020c1
:020000040000fa
:103b600000b583b0fff762ff0090034b1b68019321
:0c3b70000098019903b000bd140400206f
:020000040000fa
:103b7c0010b5040000f0d0f8034b188820431880cf
:0c3b8c0000f068f810bdc04626040020c0
:020000040000fa
:103b9800044b00221a609a60034a5a6004221a6091
:0c3ba8007047c04610e000e063bb000066
:020000040000fa
:103bb400054a136802210b431360110002220b69aa
:0c3bc4001a42fcd17047c04600200042ad
:020000040000fa
:103bd000012801d0002903d1024b802292015a61b1
:083be0007047c04600280040b8
:020000040000fa
:103be80010b50220fff730fe024b802292009a6146
:083bf80010bdc046002800408a
:020000040000fa
:103c000010b5044a5523d35c002b00d010bd00f042
:083c100081f8fbe760030020ce
:020000040000fa
:103c1800044bd861190040220b691a42fcd10120db
:083c28007047c0460020004275
:020000040000fa
:103c300010b5002903d1fff769fd203002e0081c10
:083c4000fff764fd10bdc04652
:020000040000fa
:103c480010b504001120fff713ff4008c0b240422e
:063c58002080002010bdd9
:020000040000fa
:023c5e00fee77f
:020000040000fa
:103c600010b5034c207800f0bef80023237010bd7f
:043c70009f0200208f
:020000040000fa
:103c7400c53d00005d3000000000000000000000b1
:043c8400000000003c
:020000040000fa
:103c8800212400001911000001160000e5210000a0
:043c9800893100006e
:020000040000fa
:103c9c00002803d0bff35f8f62b6704772b6bff3d4
:043cac005f8ffae745
:020000040000fa
:103cb000034908220b691a42fcd1014b98697047ed
:043cc00000200040a0
:020000040000fa
:103cc400034b00229a601a6801210a431a60704764
:043cd40010e000e01c
:020000040000fa
:103cd800034b5861190010220b691a42fcd1704736
:043ce8000020004276
:020000040000fa
:103cec00882800009c280000c6280000ce28000070
:043cfc000429000097
:020000040000fa
:103d0000eff3108072b6bff35f8f43425841c0b2e9
:023d10007047fa
:020000040000fa
:023d1200fee7ca
:020000040000fa
:103d1400024b802292005a617047c046002800403e
:020000040000fa
:103d240010b500f05af8014b187010bd9f02002026
:020000040000fa
:103d340001238340014a13617047c04600240040b8
:020000040000fa
:103d4400024b1868c003c00f7047c04610e000e083
:020000040000fa
:0e3d540010b50020fff798fa00f02cf8fce7fd
:020000040000fa
:0c3d620010b58020400000f014f810bde7
:020000040000fa
:023d6e00fee76e
:020000040000fa
:0c3d7000014b18707047c0462f04002063
:020000040000fa
:0c3d7c00014b04225a60704700400041d7
:020000040000fa
:0c3d880003695a40114059400161704726
:020000040000fa
:0c3d940080b2014b1881704700200040f5
:020000040000fa
:0c3da0000138014b5860704710e000e053
:020000040000fa
:0c3dac00014b186059607047e8030020cc
:020000040000fa
:0c3db80010b5fff783f9fef759fd10bdb0
:020000040000fa
:0a3dc40010b5fff73ffb082010bd0b
:020000040000fa
:083dce0010b5fff76eff10bdf8
:020000040000fa
:083dd60010b5fff73afd10bd26
:020000040000fa
:083dde0010b5fff78eff10bdc8
:020000040000fa
:083de60010b5fff758ff10bdf6
:020000040000fa
:023dee0070471c
:020000040000fa
:083df000000102030400c046bb
:020000040000fa
:063df800b72080047047b3
:020000040000fa
:043dfe0002207047e8
:020000040000fa
:043e020000207047e5
:020000040000fa
:043e06008160704720
:020000040000fa
:043e0c007047c046f5
:020000040000fa
:0200000400807a
:04400000770600b08f
:020000040000fa
:0200000400807a
:04400400bb00ffffff
:00000001FF
